{"abi":[{"type":"function","name":"AddMember","inputs":[{"name":"_groupId","type":"uint256","internalType":"uint256"},{"name":"_member","type":"address[]","internalType":"address[]"}],"outputs":[],"stateMutability":"nonpayable"},{"type":"function","name":"Contribute","inputs":[{"name":"_groupId","type":"uint256","internalType":"uint256"},{"name":"_goalId","type":"uint256","internalType":"uint256"}],"outputs":[],"stateMutability":"payable"},{"type":"function","name":"CreateBill","inputs":[{"name":"_groupId","type":"uint256","internalType":"uint256"},{"name":"_description","type":"string","internalType":"string"},{"name":"_billAmount","type":"uint256","internalType":"uint256"}],"outputs":[],"stateMutability":"nonpayable"},{"type":"function","name":"CreateGoal","inputs":[{"name":"_groupId","type":"uint256","internalType":"uint256"},{"name":"_name","type":"string","internalType":"string"},{"name":"_targetAmount","type":"uint256","internalType":"uint256"},{"name":"_deadline","type":"uint256","internalType":"uint256"}],"outputs":[],"stateMutability":"nonpayable"},{"type":"function","name":"CreateGroup","inputs":[{"name":"_name","type":"string","internalType":"string"}],"outputs":[],"stateMutability":"nonpayable"},{"type":"function","name":"LeaveGroup","inputs":[{"name":"_groupId","type":"uint256","internalType":"uint256"}],"outputs":[],"stateMutability":"nonpayable"},{"type":"function","name":"extendDeadline","inputs":[{"name":"_groupId","type":"uint256","internalType":"uint256"},{"name":"_goalId","type":"uint256","internalType":"uint256"},{"name":"_newDeadline","type":"uint256","internalType":"uint256"}],"outputs":[],"stateMutability":"nonpayable"},{"type":"function","name":"getGoal","inputs":[{"name":"_groupId","type":"uint256","internalType":"uint256"},{"name":"_goalId","type":"uint256","internalType":"uint256"}],"outputs":[{"name":"name","type":"string","internalType":"string"},{"name":"targetAmount","type":"uint256","internalType":"uint256"},{"name":"totalContributed","type":"uint256","internalType":"uint256"},{"name":"deadline","type":"uint256","internalType":"uint256"}],"stateMutability":"view"},{"type":"function","name":"groupCount","inputs":[],"outputs":[{"name":"","type":"uint256","internalType":"uint256"}],"stateMutability":"view"},{"type":"function","name":"payBillShare","inputs":[{"name":"_billCount","type":"uint256","internalType":"uint256"},{"name":"_groupId","type":"uint256","internalType":"uint256"}],"outputs":[],"stateMutability":"payable"},{"type":"function","name":"transferCreator","inputs":[{"name":"_groupId","type":"uint256","internalType":"uint256"},{"name":"_newCreator","type":"address","internalType":"address"}],"outputs":[],"stateMutability":"nonpayable"},{"type":"function","name":"withdrawBillFunds","inputs":[{"name":"_groupId","type":"uint256","internalType":"uint256"},{"name":"_billId","type":"uint256","internalType":"uint256"}],"outputs":[],"stateMutability":"nonpayable"},{"type":"function","name":"withdrawGoalFunds","inputs":[{"name":"_groupId","type":"uint256","internalType":"uint256"},{"name":"_goalId","type":"uint256","internalType":"uint256"}],"outputs":[],"stateMutability":"nonpayable"},{"type":"event","name":"Addmember","inputs":[{"name":"groupId","type":"uint256","indexed":true,"internalType":"uint256"},{"name":"member","type":"address[]","indexed":true,"internalType":"address[]"}],"anonymous":false},{"type":"event","name":"BillCreated","inputs":[{"name":"groupId","type":"uint256","indexed":true,"internalType":"uint256"},{"name":"billId","type":"uint256","indexed":true,"internalType":"uint256"},{"name":"totalAmount","type":"uint256","indexed":true,"internalType":"uint256"},{"name":"creator","type":"address","indexed":false,"internalType":"address"}],"anonymous":false},{"type":"event","name":"BillPaid","inputs":[{"name":"groupId","type":"uint256","indexed":true,"internalType":"uint256"},{"name":"billId","type":"uint256","indexed":true,"internalType":"uint256"},{"name":"member","type":"uint256","indexed":true,"internalType":"uint256"},{"name":"amount","type":"uint256","indexed":false,"internalType":"uint256"}],"anonymous":false},{"type":"event","name":"ContributionMade","inputs":[{"name":"groupId","type":"uint256","indexed":true,"internalType":"uint256"},{"name":"goalId","type":"uint256","indexed":true,"internalType":"uint256"},{"name":"member","type":"address","indexed":true,"internalType":"address"},{"name":"amount","type":"uint256","indexed":false,"internalType":"uint256"}],"anonymous":false},{"type":"event","name":"CreatorTransferred","inputs":[{"name":"groupId","type":"uint256","indexed":true,"internalType":"uint256"},{"name":"oldCreator","type":"address","indexed":true,"internalType":"address"},{"name":"newCreator","type":"address","indexed":true,"internalType":"address"}],"anonymous":false},{"type":"event","name":"GoalCreated","inputs":[{"name":"groupId","type":"uint256","indexed":true,"internalType":"uint256"},{"name":"goalId","type":"uint256","indexed":true,"internalType":"uint256"},{"name":"targetAmount","type":"uint256","indexed":true,"internalType":"uint256"}],"anonymous":false},{"type":"event","name":"GoalDeadlineExtended","inputs":[{"name":"groupId","type":"uint256","indexed":true,"internalType":"uint256"},{"name":"goalId","type":"uint256","indexed":true,"internalType":"uint256"},{"name":"newDeadline","type":"uint256","indexed":true,"internalType":"uint256"}],"anonymous":false},{"type":"event","name":"GroupCreated","inputs":[{"name":"groupId","type":"uint256","indexed":true,"internalType":"uint256"},{"name":"creator","type":"address","indexed":true,"internalType":"address"}],"anonymous":false}],"bytecode":{"object":"0x6080604052348015600e575f80fd5b506129ad8061001c5f395ff3fe6080604052600436106100c1575f3560e01c80638f23b3261161007e5780639b8a1c7e116100585780639b8a1c7e1461022e578063c74ba1d714610256578063d408839b1461027e578063dbc452f0146102a6576100c1565b80638f23b3261461019d5780638f32b052146101c75780639208e378146101ef576100c1565b80631cc9bb21146100c55780634a8efe11146100ed5780635b5b21e3146101095780637109ec2e146101255780637d5d8edc1461014d5780638a03f08814610175575b5f80fd5b3480156100d0575f80fd5b506100eb60048036038101906100e691906115d6565b6102ce565b005b61010760048036038101906101029190611614565b610482565b005b610123600480360381019061011e9190611614565b6106c6565b005b348015610130575f80fd5b5061014b6004803603810190610146919061178e565b6108c6565b005b348015610158575f80fd5b50610173600480360381019061016e91906117d5565b6109af565b005b348015610180575f80fd5b5061019b60048036038101906101969190611614565b610b85565b005b3480156101a8575f80fd5b506101b1610db3565b6040516101be9190611834565b60405180910390f35b3480156101d2575f80fd5b506101ed60048036038101906101e8919061184d565b610db9565b005b3480156101fa575f80fd5b5061021560048036038101906102109190611614565b610ea1565b6040516102259493929190611919565b60405180910390f35b348015610239575f80fd5b50610254600480360381019061024f9190611614565b610f79565b005b348015610261575f80fd5b5061027c60048036038101906102779190611a27565b6111c4565b005b348015610289575f80fd5b506102a4600480360381019061029f9190611a81565b611354565b005b3480156102b1575f80fd5b506102cc60048036038101906102c79190611aac565b6113fd565b005b5f805f8481526020019081526020015f209050806001015f9054906101000a900473ffffffffffffffffffffffffffffffffffffffff1673ffffffffffffffffffffffffffffffffffffffff163373ffffffffffffffffffffffffffffffffffffffff1614610372576040517f08c379a000000000000000000000000000000000000000000000000000000000815260040161036990611b76565b60405180910390fd5b5f73ffffffffffffffffffffffffffffffffffffffff168273ffffffffffffffffffffffffffffffffffffffff16036103e0576040517f08c379a00000000000000000000000000000000000000000000000000000000081526004016103d790611bde565b60405180910390fd5b81816001015f6101000a81548173ffffffffffffffffffffffffffffffffffffffff021916908373ffffffffffffffffffffffffffffffffffffffff1602179055508173ffffffffffffffffffffffffffffffffffffffff163373ffffffffffffffffffffffffffffffffffffffff16847f34663fb7cdece45f4bed32532aefe29f2e70265a8680868bf2c8c16d9dc201ce60405160405180910390a4505050565b5f805f8481526020019081526020015f2090505f816003015f8481526020019081526020015f2090505f8160010154116104f1576040517f08c379a00000000000000000000000000000000000000000000000000000000081526004016104e890611c46565b60405180910390fd5b42816003015410610537576040517f08c379a000000000000000000000000000000000000000000000000000000000815260040161052e90611cae565b60405180910390fd5b806005015f9054906101000a900460ff1615610588576040517f08c379a000000000000000000000000000000000000000000000000000000000815260040161057f90611d16565b60405180910390fd5b5f34116105ca576040517f08c379a00000000000000000000000000000000000000000000000000000000081526004016105c190611d7e565b60405180910390fd5b3481600201546105da9190611dc9565b816002018190555034816004015f3373ffffffffffffffffffffffffffffffffffffffff1673ffffffffffffffffffffffffffffffffffffffff1681526020019081526020015f205461062d9190611dc9565b816004015f3373ffffffffffffffffffffffffffffffffffffffff1673ffffffffffffffffffffffffffffffffffffffff1681526020019081526020015f20819055503373ffffffffffffffffffffffffffffffffffffffff1683857f11bfe06cab306870bd20ccf0ba9baecc5275f39c28419943f429294cb04580a1346040516106b89190611834565b60405180910390a450505050565b5f805f8381526020019081526020015f2090505f816004015f8581526020019081526020015f2090505f3411610731576040517f08c379a000000000000000000000000000000000000000000000000000000000815260040161072890611e46565b60405180910390fd5b5f816001015411610777576040517f08c379a000000000000000000000000000000000000000000000000000000000815260040161076e90611eae565b60405180910390fd5b5f835f525f60205260405f20600281018054815f5260205f205f5b828110156107bb57808201543381036107af5760019650506107bb565b50600181019050610792565b505050505080610800576040517f08c379a00000000000000000000000000000000000000000000000000000000081526004016107f790611f3c565b60405180910390fd5b34826004015f3373ffffffffffffffffffffffffffffffffffffffff1673ffffffffffffffffffffffffffffffffffffffff1681526020019081526020015f205f82825461084e9190611dc9565b9250508190555034826002015f8282546108689190611dc9565b925050819055503373ffffffffffffffffffffffffffffffffffffffff1685857f67fea501e4524d5eed606fdc3c3d9540bb63d6049a8c06da18feb2bc798e953d346040516108b79190611834565b60405180910390a45050505050565b60015f8154809291906108d890611f5a565b91905055505f60015f8154809291906108f090611f5a565b919050559050815f808381526020019081526020015f205f019081610915919061219b565b50335f808381526020019081526020015f206001015f6101000a81548173ffffffffffffffffffffffffffffffffffffffff021916908373ffffffffffffffffffffffffffffffffffffffff1602179055503373ffffffffffffffffffffffffffffffffffffffff16817f6958b51b54d963fa8eeeea5b61b83a9ad28f9ee9d5a2f1b8495e6866cb534bb160405160405180910390a35050565b5f805f8581526020019081526020015f209050806001015f9054906101000a900473ffffffffffffffffffffffffffffffffffffffff1673ffffffffffffffffffffffffffffffffffffffff163373ffffffffffffffffffffffffffffffffffffffff1614610a53576040517f08c379a0000000000000000000000000000000000000000000000000000000008152600401610a4a906122b4565b60405180910390fd5b5f816003015f8581526020019081526020015f2090505f816003015411610aaf576040517f08c379a0000000000000000000000000000000000000000000000000000000008152600401610aa69061231c565b60405180910390fd5b806005015f9054906101000a900460ff1615610b00576040517f08c379a0000000000000000000000000000000000000000000000000000000008152600401610af790612384565b60405180910390fd5b80600301548311610b46576040517f08c379a0000000000000000000000000000000000000000000000000000000008152600401610b3d906123ec565b60405180910390fd5b8281600301819055508284867fd56d0c78c63c5f1cca6780b0441ca8ed2b8bf68570664eb11019962d46a207d160405160405180910390a45050505050565b5f805f8481526020019081526020015f206004015f8381526020019081526020015f209050806005015f9054906101000a900460ff1615610bfb576040517f08c379a0000000000000000000000000000000000000000000000000000000008152600401610bf290612454565b60405180910390fd5b806001015481600201541015610c46576040517f08c379a0000000000000000000000000000000000000000000000000000000008152600401610c3d906124bc565b60405180910390fd5b3373ffffffffffffffffffffffffffffffffffffffff16816003015f9054906101000a900473ffffffffffffffffffffffffffffffffffffffff1673ffffffffffffffffffffffffffffffffffffffff1614610cd7576040517f08c379a0000000000000000000000000000000000000000000000000000000008152600401610cce90612524565b60405180910390fd5b6001816005015f6101000a81548160ff0219169083151502179055505f816002015490505f82600201819055505f3373ffffffffffffffffffffffffffffffffffffffff1682604051610d299061256f565b5f6040518083038185875af1925050503d805f8114610d63576040519150601f19603f3d011682016040523d82523d5f602084013e610d68565b606091505b5050905080610dac576040517f08c379a0000000000000000000000000000000000000000000000000000000008152600401610da3906125cd565b60405180910390fd5b5050505050565b60015481565b5f805f8581526020019081526020015f209050806006015f815480929190610de090611f5a565b91905055505f816006015490505f826004015f8381526020019081526020015f20905083816001018190555084815f019081610e1c919061219b565b5033816003015f6101000a81548173ffffffffffffffffffffffffffffffffffffffff021916908373ffffffffffffffffffffffffffffffffffffffff1602179055508382877ff8e4f006495c20d4e4d2499d0ae2957971f167c1c7746e885b9b40b7f68baa0733604051610e9191906125fa565b60405180910390a4505050505050565b60605f805f805f808881526020019081526020015f206003015f8781526020019081526020015f209050805f01816001015482600201548360030154838054610ee990611fce565b80601f0160208091040260200160405190810160405280929190818152602001828054610f1590611fce565b8015610f605780601f10610f3757610100808354040283529160200191610f60565b820191905f5260205f20905b815481529060010190602001808311610f4357829003601f168201915b5050505050935094509450945094505092959194509250565b5f805f8481526020019081526020015f206003015f8381526020019081526020015f2090505f808481526020019081526020015f206001015f9054906101000a900473ffffffffffffffffffffffffffffffffffffffff1673ffffffffffffffffffffffffffffffffffffffff163373ffffffffffffffffffffffffffffffffffffffff161461103e576040517f08c379a00000000000000000000000000000000000000000000000000000000081526004016110359061265d565b60405180910390fd5b806001015481600201541015806110585750428160030154105b611097576040517f08c379a000000000000000000000000000000000000000000000000000000000815260040161108e906126c5565b60405180910390fd5b806005015f9054906101000a900460ff16156110e8576040517f08c379a00000000000000000000000000000000000000000000000000000000081526004016110df9061272d565b60405180910390fd5b6001816005015f6101000a81548160ff0219169083151502179055505f816002015490505f82600201819055505f3373ffffffffffffffffffffffffffffffffffffffff168260405161113a9061256f565b5f6040518083038185875af1925050503d805f8114611174576040519150601f19603f3d011682016040523d82523d5f602084013e611179565b606091505b50509050806111bd576040517f08c379a00000000000000000000000000000000000000000000000000000000081526004016111b490612795565b60405180910390fd5b5050505050565b5f805f8481526020019081526020015f206001015f9054906101000a900473ffffffffffffffffffffffffffffffffffffffff1690508073ffffffffffffffffffffffffffffffffffffffff163373ffffffffffffffffffffffffffffffffffffffff1614611268576040517f08c379a000000000000000000000000000000000000000000000000000000000815260040161125f906127fd565b60405180910390fd5b5f5b825181101561130b575f808581526020019081526020015f206002018382815181106112995761129861281b565b5b6020026020010151908060018154018082558091505060019003905f5260205f20015f9091909190916101000a81548173ffffffffffffffffffffffffffffffffffffffff021916908373ffffffffffffffffffffffffffffffffffffffff160217905550808060010191505061126a565b508160405161131a91906128f9565b6040518091039020837f84dbf200523e6061adb4959c2322706fb17572455660363c21f9b3ea425372ba60405160405180910390a3505050565b5f815f525f60205260405f20600281018054815f5260205f205f5b828110156113b45780820180543381036113a757600185038401548083555f60018703860155600186038755600198505050506113b4565b505060018101905061136f565b5050505050806113f9576040517f08c379a00000000000000000000000000000000000000000000000000000000081526004016113f090612959565b60405180910390fd5b5050565b5f805f8681526020019081526020015f209050806005015f81548092919061142490611f5a565b91905055505f816005015490505f826003015f8381526020019081526020015f2090505f836001015f9054906101000a900473ffffffffffffffffffffffffffffffffffffffff1690508073ffffffffffffffffffffffffffffffffffffffff163373ffffffffffffffffffffffffffffffffffffffff16146114dc576040517f08c379a00000000000000000000000000000000000000000000000000000000081526004016114d3906127fd565b60405180910390fd5b84826003018190555086825f0190816114f5919061219b565b508582600101819055508583897f32e80b9743f14531991f8778d27f41ac716eae53db4048f5e6f78da6cfe2c7cc60405160405180910390a45050505050505050565b5f604051905090565b5f80fd5b5f80fd5b5f819050919050565b61155b81611549565b8114611565575f80fd5b50565b5f8135905061157681611552565b92915050565b5f73ffffffffffffffffffffffffffffffffffffffff82169050919050565b5f6115a58261157c565b9050919050565b6115b58161159b565b81146115bf575f80fd5b50565b5f813590506115d0816115ac565b92915050565b5f80604083850312156115ec576115eb611541565b5b5f6115f985828601611568565b925050602061160a858286016115c2565b9150509250929050565b5f806040838503121561162a57611629611541565b5b5f61163785828601611568565b925050602061164885828601611568565b9150509250929050565b5f80fd5b5f80fd5b5f601f19601f8301169050919050565b7f4e487b71000000000000000000000000000000000000000000000000000000005f52604160045260245ffd5b6116a08261165a565b810181811067ffffffffffffffff821117156116bf576116be61166a565b5b80604052505050565b5f6116d1611538565b90506116dd8282611697565b919050565b5f67ffffffffffffffff8211156116fc576116fb61166a565b5b6117058261165a565b9050602081019050919050565b828183375f83830152505050565b5f61173261172d846116e2565b6116c8565b90508281526020810184848401111561174e5761174d611656565b5b611759848285611712565b509392505050565b5f82601f83011261177557611774611652565b5b8135611785848260208601611720565b91505092915050565b5f602082840312156117a3576117a2611541565b5b5f82013567ffffffffffffffff8111156117c0576117bf611545565b5b6117cc84828501611761565b91505092915050565b5f805f606084860312156117ec576117eb611541565b5b5f6117f986828701611568565b935050602061180a86828701611568565b925050604061181b86828701611568565b9150509250925092565b61182e81611549565b82525050565b5f6020820190506118475f830184611825565b92915050565b5f805f6060848603121561186457611863611541565b5b5f61187186828701611568565b935050602084013567ffffffffffffffff81111561189257611891611545565b5b61189e86828701611761565b92505060406118af86828701611568565b9150509250925092565b5f81519050919050565b5f82825260208201905092915050565b8281835e5f83830152505050565b5f6118eb826118b9565b6118f581856118c3565b93506119058185602086016118d3565b61190e8161165a565b840191505092915050565b5f6080820190508181035f83015261193181876118e1565b90506119406020830186611825565b61194d6040830185611825565b61195a6060830184611825565b95945050505050565b5f67ffffffffffffffff82111561197d5761197c61166a565b5b602082029050602081019050919050565b5f80fd5b5f6119a461199f84611963565b6116c8565b905080838252602082019050602084028301858111156119c7576119c661198e565b5b835b818110156119f057806119dc88826115c2565b8452602084019350506020810190506119c9565b5050509392505050565b5f82601f830112611a0e57611a0d611652565b5b8135611a1e848260208601611992565b91505092915050565b5f8060408385031215611a3d57611a3c611541565b5b5f611a4a85828601611568565b925050602083013567ffffffffffffffff811115611a6b57611a6a611545565b5b611a77858286016119fa565b9150509250929050565b5f60208284031215611a9657611a95611541565b5b5f611aa384828501611568565b91505092915050565b5f805f8060808587031215611ac457611ac3611541565b5b5f611ad187828801611568565b945050602085013567ffffffffffffffff811115611af257611af1611545565b5b611afe87828801611761565b9350506040611b0f87828801611568565b9250506060611b2087828801611568565b91505092959194509250565b7f4f6e6c792063726561746f722063616e207472616e73666572000000000000005f82015250565b5f611b606019836118c3565b9150611b6b82611b2c565b602082019050919050565b5f6020820190508181035f830152611b8d81611b54565b9050919050565b7f496e76616c6964206e65772063726561746f72000000000000000000000000005f82015250565b5f611bc86013836118c3565b9150611bd382611b94565b602082019050919050565b5f6020820190508181035f830152611bf581611bbc565b9050919050565b7f676f616c20646f6573206e6f74206578697374000000000000000000000000005f82015250565b5f611c306013836118c3565b9150611c3b82611bfc565b602082019050919050565b5f6020820190508181035f830152611c5d81611c24565b9050919050565b7f676f616c206e6f7420696e2073657373696f6e000000000000000000000000005f82015250565b5f611c986013836118c3565b9150611ca382611c64565b602082019050919050565b5f6020820190508181035f830152611cc581611c8c565b9050919050565b7f676f616c20616c72656164792077697468647261776e000000000000000000005f82015250565b5f611d006016836118c3565b9150611d0b82611ccc565b602082019050919050565b5f6020820190508181035f830152611d2d81611cf4565b9050919050565b7f656e7465722076616c696420616d6f756e7400000000000000000000000000005f82015250565b5f611d686012836118c3565b9150611d7382611d34565b602082019050919050565b5f6020820190508181035f830152611d9581611d5c565b9050919050565b7f4e487b71000000000000000000000000000000000000000000000000000000005f52601160045260245ffd5b5f611dd382611549565b9150611dde83611549565b9250828201905080821115611df657611df5611d9c565b5b92915050565b7f4d7573742073656e6420455448000000000000000000000000000000000000005f82015250565b5f611e30600d836118c3565b9150611e3b82611dfc565b602082019050919050565b5f6020820190508181035f830152611e5d81611e24565b9050919050565b7f42696c6c20646f6573206e6f74206578697374000000000000000000000000005f82015250565b5f611e986013836118c3565b9150611ea382611e64565b602082019050919050565b5f6020820190508181035f830152611ec581611e8c565b9050919050565b7f596f7520617265206e6f742061206d656d626572206f6620746869732067726f5f8201527f7570000000000000000000000000000000000000000000000000000000000000602082015250565b5f611f266022836118c3565b9150611f3182611ecc565b604082019050919050565b5f6020820190508181035f830152611f5381611f1a565b9050919050565b5f611f6482611549565b91507fffffffffffffffffffffffffffffffffffffffffffffffffffffffffffffffff8203611f9657611f95611d9c565b5b600182019050919050565b7f4e487b71000000000000000000000000000000000000000000000000000000005f52602260045260245ffd5b5f6002820490506001821680611fe557607f821691505b602082108103611ff857611ff7611fa1565b5b50919050565b5f819050815f5260205f209050919050565b5f6020601f8301049050919050565b5f82821b905092915050565b5f6008830261205a7fffffffffffffffffffffffffffffffffffffffffffffffffffffffffffffffff8261201f565b612064868361201f565b95508019841693508086168417925050509392505050565b5f819050919050565b5f61209f61209a61209584611549565b61207c565b611549565b9050919050565b5f819050919050565b6120b883612085565b6120cc6120c4826120a6565b84845461202b565b825550505050565b5f90565b6120e06120d4565b6120eb8184846120af565b505050565b5b8181101561210e576121035f826120d8565b6001810190506120f1565b5050565b601f8211156121535761212481611ffe565b61212d84612010565b8101602085101561213c578190505b61215061214885612010565b8301826120f0565b50505b505050565b5f82821c905092915050565b5f6121735f1984600802612158565b1980831691505092915050565b5f61218b8383612164565b9150826002028217905092915050565b6121a4826118b9565b67ffffffffffffffff8111156121bd576121bc61166a565b5b6121c78254611fce565b6121d2828285612112565b5f60209050601f831160018114612203575f84156121f1578287015190505b6121fb8582612180565b865550612262565b601f19841661221186611ffe565b5f5b8281101561223857848901518255600182019150602085019450602081019050612213565b868310156122555784890151612251601f891682612164565b8355505b6001600288020188555050505b505050505050565b7f4f6e6c792063726561746f722063616e20657874656e6420646561646c696e655f82015250565b5f61229e6020836118c3565b91506122a98261226a565b602082019050919050565b5f6020820190508181035f8301526122cb81612292565b9050919050565b7f476f616c20646f6573206e6f74206578697374000000000000000000000000005f82015250565b5f6123066013836118c3565b9150612311826122d2565b602082019050919050565b5f6020820190508181035f830152612333816122fa565b9050919050565b7f476f616c20616c72656164792077697468647261776e000000000000000000005f82015250565b5f61236e6016836118c3565b91506123798261233a565b602082019050919050565b5f6020820190508181035f83015261239b81612362565b9050919050565b7f4e657720646561646c696e65206d757374206265206c617465720000000000005f82015250565b5f6123d6601a836118c3565b91506123e1826123a2565b602082019050919050565b5f6020820190508181035f830152612403816123ca565b9050919050565b7f416c7265616479207265696d62757273656400000000000000000000000000005f82015250565b5f61243e6012836118c3565b91506124498261240a565b602082019050919050565b5f6020820190508181035f83015261246b81612432565b9050919050565b7f42696c6c206e6f742066756c6c792070616964000000000000000000000000005f82015250565b5f6124a66013836118c3565b91506124b182612472565b602082019050919050565b5f6020820190508181035f8301526124d38161249a565b9050919050565b7f4f6e6c792062696c6c2063726561746f722063616e20776974686472617700005f82015250565b5f61250e601e836118c3565b9150612519826124da565b602082019050919050565b5f6020820190508181035f83015261253b81612502565b9050919050565b5f81905092915050565b50565b5f61255a5f83612542565b91506125658261254c565b5f82019050919050565b5f6125798261254f565b9150819050919050565b7f5769746864726177206661696c656400000000000000000000000000000000005f82015250565b5f6125b7600f836118c3565b91506125c282612583565b602082019050919050565b5f6020820190508181035f8301526125e4816125ab565b9050919050565b6125f48161159b565b82525050565b5f60208201905061260d5f8301846125eb565b92915050565b7f4f6e6c792063726561746f722063616e207769746864726177000000000000005f82015250565b5f6126476019836118c3565b915061265282612613565b602082019050919050565b5f6020820190508181035f8301526126748161263b565b9050919050565b7f546172676574206e6f74206d65740000000000000000000000000000000000005f82015250565b5f6126af600e836118c3565b91506126ba8261267b565b602082019050919050565b5f6020820190508181035f8301526126dc816126a3565b9050919050565b7f416c72656164792077697468647261776e0000000000000000000000000000005f82015250565b5f6127176011836118c3565b9150612722826126e3565b602082019050919050565b5f6020820190508181035f8301526127448161270b565b9050919050565b7f5472616e73666572206661696c656400000000000000000000000000000000005f82015250565b5f61277f600f836118c3565b915061278a8261274b565b602082019050919050565b5f6020820190508181035f8301526127ac81612773565b9050919050565b7f6f6e6c792063726561746f722063616e20616464206d656d62657200000000005f82015250565b5f6127e7601b836118c3565b91506127f2826127b3565b602082019050919050565b5f6020820190508181035f830152612814816127db565b9050919050565b7f4e487b71000000000000000000000000000000000000000000000000000000005f52603260045260245ffd5b5f81519050919050565b5f81905092915050565b5f819050602082019050919050565b6128748161159b565b82525050565b5f612885838361286b565b60208301905092915050565b5f602082019050919050565b5f6128a782612848565b6128b18185612852565b93506128bc8361285c565b805f5b838110156128ec5781516128d3888261287a565b97506128de83612891565b9250506001810190506128bf565b5085935050505092915050565b5f612904828461289d565b915081905092915050565b7f4e6f742061206d656d62657200000000000000000000000000000000000000005f82015250565b5f612943600c836118c3565b915061294e8261290f565b602082019050919050565b5f6020820190508181035f83015261297081612937565b905091905056fea2646970667358221220798ad684d384190d8fab3aacc7a3030b9f76d203a6d0dac8c7577b04f313bbc264736f6c63430008190033","linkReferences":{}},"methodIdentifiers":{"AddMember(uint256,address[])":"c74ba1d7","Contribute(uint256,uint256)":"4a8efe11","CreateBill(uint256,string,uint256)":"8f32b052","CreateGoal(uint256,string,uint256,uint256)":"dbc452f0","CreateGroup(string)":"7109ec2e","LeaveGroup(uint256)":"d408839b","extendDeadline(uint256,uint256,uint256)":"7d5d8edc","getGoal(uint256,uint256)":"9208e378","groupCount()":"8f23b326","payBillShare(uint256,uint256)":"5b5b21e3","transferCreator(uint256,address)":"1cc9bb21","withdrawBillFunds(uint256,uint256)":"8a03f088","withdrawGoalFunds(uint256,uint256)":"9b8a1c7e"},"id":0}