{"abi":[{"type":"function","name":"Contribute","inputs":[{"name":"_groupId","type":"uint256","internalType":"uint256"},{"name":"_goalId","type":"uint256","internalType":"uint256"}],"outputs":[],"stateMutability":"payable"},{"type":"function","name":"CreateBill","inputs":[{"name":"_groupId","type":"uint256","internalType":"uint256"},{"name":"_description","type":"string","internalType":"string"},{"name":"_billAmount","type":"uint256","internalType":"uint256"}],"outputs":[],"stateMutability":"nonpayable"},{"type":"function","name":"CreateGoal","inputs":[{"name":"_groupId","type":"uint256","internalType":"uint256"},{"name":"_name","type":"string","internalType":"string"},{"name":"_targetAmount","type":"uint256","internalType":"uint256"},{"name":"_deadline","type":"uint256","internalType":"uint256"}],"outputs":[],"stateMutability":"nonpayable"},{"type":"function","name":"CreateGroup","inputs":[{"name":"_name","type":"string","internalType":"string"}],"outputs":[],"stateMutability":"nonpayable"},{"type":"function","name":"LeaveGroup","inputs":[{"name":"_groupId","type":"uint256","internalType":"uint256"}],"outputs":[],"stateMutability":"nonpayable"},{"type":"function","name":"addMember","inputs":[{"name":"_groupId","type":"uint256","internalType":"uint256"},{"name":"_members","type":"address[]","internalType":"address[]"}],"outputs":[],"stateMutability":"nonpayable"},{"type":"function","name":"extendDeadline","inputs":[{"name":"_groupId","type":"uint256","internalType":"uint256"},{"name":"_goalId","type":"uint256","internalType":"uint256"},{"name":"_newDeadline","type":"uint256","internalType":"uint256"}],"outputs":[],"stateMutability":"nonpayable"},{"type":"function","name":"getAllBills","inputs":[{"name":"_groupId","type":"uint256","internalType":"uint256"}],"outputs":[{"name":"descriptions","type":"string[]","internalType":"string[]"},{"name":"totalAmounts","type":"uint256[]","internalType":"uint256[]"},{"name":"paidAmounts","type":"uint256[]","internalType":"uint256[]"},{"name":"creators","type":"address[]","internalType":"address[]"},{"name":"reimbursed","type":"bool[]","internalType":"bool[]"}],"stateMutability":"view"},{"type":"function","name":"getAllGoals","inputs":[{"name":"_groupId","type":"uint256","internalType":"uint256"}],"outputs":[{"name":"names","type":"string[]","internalType":"string[]"},{"name":"targetAmounts","type":"uint256[]","internalType":"uint256[]"},{"name":"totalContributed","type":"uint256[]","internalType":"uint256[]"},{"name":"deadlines","type":"uint256[]","internalType":"uint256[]"},{"name":"withdrawn","type":"bool[]","internalType":"bool[]"}],"stateMutability":"view"},{"type":"function","name":"getBillPayers","inputs":[{"name":"_groupId","type":"uint256","internalType":"uint256"},{"name":"_billId","type":"uint256","internalType":"uint256"}],"outputs":[{"name":"","type":"address[]","internalType":"address[]"},{"name":"","type":"uint256[]","internalType":"uint256[]"}],"stateMutability":"view"},{"type":"function","name":"getContribution","inputs":[{"name":"_groupId","type":"uint256","internalType":"uint256"},{"name":"_goalId","type":"uint256","internalType":"uint256"},{"name":"_addr","type":"address","internalType":"address"}],"outputs":[{"name":"","type":"uint256","internalType":"uint256"}],"stateMutability":"view"},{"type":"function","name":"getGoalContributors","inputs":[{"name":"_groupId","type":"uint256","internalType":"uint256"},{"name":"_goalId","type":"uint256","internalType":"uint256"}],"outputs":[{"name":"","type":"address[]","internalType":"address[]"},{"name":"","type":"uint256[]","internalType":"uint256[]"}],"stateMutability":"view"},{"type":"function","name":"getGroup","inputs":[{"name":"_groupId","type":"uint256","internalType":"uint256"}],"outputs":[{"name":"","type":"string","internalType":"string"},{"name":"","type":"address","internalType":"address"},{"name":"","type":"address[]","internalType":"address[]"}],"stateMutability":"view"},{"type":"function","name":"getMembers","inputs":[{"name":"_groupId","type":"uint256","internalType":"uint256"}],"outputs":[{"name":"","type":"address[]","internalType":"address[]"}],"stateMutability":"view"},{"type":"function","name":"getOutstandingAmount","inputs":[{"name":"_groupId","type":"uint256","internalType":"uint256"},{"name":"_billId","type":"uint256","internalType":"uint256"},{"name":"_member","type":"address","internalType":"address"}],"outputs":[{"name":"outstanding","type":"uint256","internalType":"uint256"}],"stateMutability":"view"},{"type":"function","name":"getPaidShare","inputs":[{"name":"_groupId","type":"uint256","internalType":"uint256"},{"name":"_billId","type":"uint256","internalType":"uint256"},{"name":"_addr","type":"address","internalType":"address"}],"outputs":[{"name":"","type":"uint256","internalType":"uint256"}],"stateMutability":"view"},{"type":"function","name":"groupCount","inputs":[],"outputs":[{"name":"","type":"uint256","internalType":"uint256"}],"stateMutability":"view"},{"type":"function","name":"isMemberOf","inputs":[{"name":"_groupId","type":"uint256","internalType":"uint256"},{"name":"_addr","type":"address","internalType":"address"}],"outputs":[{"name":"","type":"bool","internalType":"bool"}],"stateMutability":"view"},{"type":"function","name":"payBillShare","inputs":[{"name":"_billId","type":"uint256","internalType":"uint256"},{"name":"_groupId","type":"uint256","internalType":"uint256"}],"outputs":[],"stateMutability":"payable"},{"type":"function","name":"transferCreator","inputs":[{"name":"_groupId","type":"uint256","internalType":"uint256"},{"name":"_newCreator","type":"address","internalType":"address"}],"outputs":[],"stateMutability":"nonpayable"},{"type":"function","name":"withdrawBillFunds","inputs":[{"name":"_groupId","type":"uint256","internalType":"uint256"},{"name":"_billId","type":"uint256","internalType":"uint256"}],"outputs":[],"stateMutability":"nonpayable"},{"type":"function","name":"withdrawGoalFunds","inputs":[{"name":"_groupId","type":"uint256","internalType":"uint256"},{"name":"_goalId","type":"uint256","internalType":"uint256"}],"outputs":[],"stateMutability":"nonpayable"},{"type":"event","name":"AddMember","inputs":[{"name":"groupId","type":"uint256","indexed":true,"internalType":"uint256"},{"name":"member","type":"address","indexed":true,"internalType":"address"}],"anonymous":false},{"type":"event","name":"BillCreated","inputs":[{"name":"groupId","type":"uint256","indexed":true,"internalType":"uint256"},{"name":"billId","type":"uint256","indexed":true,"internalType":"uint256"},{"name":"totalAmount","type":"uint256","indexed":true,"internalType":"uint256"},{"name":"creator","type":"address","indexed":false,"internalType":"address"}],"anonymous":false},{"type":"event","name":"BillPaid","inputs":[{"name":"groupId","type":"uint256","indexed":true,"internalType":"uint256"},{"name":"billId","type":"uint256","indexed":true,"internalType":"uint256"},{"name":"payer","type":"address","indexed":true,"internalType":"address"},{"name":"amount","type":"uint256","indexed":false,"internalType":"uint256"}],"anonymous":false},{"type":"event","name":"ContributionMade","inputs":[{"name":"groupId","type":"uint256","indexed":true,"internalType":"uint256"},{"name":"goalId","type":"uint256","indexed":true,"internalType":"uint256"},{"name":"member","type":"address","indexed":true,"internalType":"address"},{"name":"amount","type":"uint256","indexed":false,"internalType":"uint256"}],"anonymous":false},{"type":"event","name":"CreatorTransferred","inputs":[{"name":"groupId","type":"uint256","indexed":true,"internalType":"uint256"},{"name":"oldCreator","type":"address","indexed":true,"internalType":"address"},{"name":"newCreator","type":"address","indexed":true,"internalType":"address"}],"anonymous":false},{"type":"event","name":"GoalCreated","inputs":[{"name":"groupId","type":"uint256","indexed":true,"internalType":"uint256"},{"name":"goalId","type":"uint256","indexed":true,"internalType":"uint256"},{"name":"targetAmount","type":"uint256","indexed":true,"internalType":"uint256"}],"anonymous":false},{"type":"event","name":"GoalDeadlineExtended","inputs":[{"name":"groupId","type":"uint256","indexed":true,"internalType":"uint256"},{"name":"goalId","type":"uint256","indexed":true,"internalType":"uint256"},{"name":"newDeadline","type":"uint256","indexed":true,"internalType":"uint256"}],"anonymous":false},{"type":"event","name":"GroupCreated","inputs":[{"name":"groupId","type":"uint256","indexed":true,"internalType":"uint256"},{"name":"creator","type":"address","indexed":true,"internalType":"address"}],"anonymous":false},{"type":"error","name":"ReentrancyGuardReentrantCall","inputs":[]}],"bytecode":{"object":"0x6080604052348015600e575f80fd5b5060015f81905550614e2c806100235f395ff3fe608060405260043610610134575f3560e01c80638f32b052116100aa578063c5b00a001161006e578063c5b00a001461041b578063ceb6065414610458578063d408839b14610496578063d8673655146104be578063dbc452f0146104fe578063e90a15961461052657610134565b80638f32b052146103165780639a806bfd1461033e5780639b0323421461037b5780639b8a1c7e146103b7578063c477ecab146103df57610134565b80635b5b21e3116100fc5780635b5b21e31461021c5780637109ec2e14610238578063788df6b7146102605780637d5d8edc1461029c5780638a03f088146102c45780638f23b326146102ec57610134565b806313d43a88146101385780631cc9bb2114610174578063323ad28b1461019c57806345b8d867146101d85780634a8efe1114610200575b5f80fd5b348015610143575f80fd5b5061015e60048036038101906101599190613215565b610566565b60405161016b9190613274565b60405180910390f35b34801561017f575f80fd5b5061019a6004803603810190610195919061328d565b6105d7565b005b3480156101a7575f80fd5b506101c260048036038101906101bd9190613215565b6108d0565b6040516101cf9190613274565b60405180910390f35b3480156101e3575f80fd5b506101fe60048036038101906101f9919061341b565b610a44565b005b61021a60048036038101906102159190613475565b610d73565b005b61023660048036038101906102319190613475565b611146565b005b348015610243575f80fd5b5061025e60048036038101906102599190613563565b6113f7565b005b34801561026b575f80fd5b506102866004803603810190610281919061328d565b61157f565b60405161029391906135c4565b60405180910390f35b3480156102a7575f80fd5b506102c260048036038101906102bd91906135dd565b6115e4565b005b3480156102cf575f80fd5b506102ea60048036038101906102e59190613475565b61184c565b005b3480156102f7575f80fd5b50610300611b67565b60405161030d9190613274565b60405180910390f35b348015610321575f80fd5b5061033c6004803603810190610337919061362d565b611b6d565b005b348015610349575f80fd5b50610364600480360381019061035f9190613475565b611e33565b604051610372929190613807565b60405180910390f35b348015610386575f80fd5b506103a1600480360381019061039c9190613215565b612017565b6040516103ae9190613274565b60405180910390f35b3480156103c2575f80fd5b506103dd60048036038101906103d89190613475565b612088565b005b3480156103ea575f80fd5b506104056004803603810190610400919061383c565b6123f7565b6040516104129190613867565b60405180910390f35b348015610426575f80fd5b50610441600480360381019061043c9190613475565b612496565b60405161044f929190613807565b60405180910390f35b348015610463575f80fd5b5061047e6004803603810190610479919061383c565b61267a565b60405161048d939291906138f6565b60405180910390f35b3480156104a1575f80fd5b506104bc60048036038101906104b7919061383c565b6127db565b005b3480156104c9575f80fd5b506104e460048036038101906104df919061383c565b612885565b6040516104f5959493929190613af3565b60405180910390f35b348015610509575f80fd5b50610524600480360381019061051f9190613b67565b612bba565b005b348015610531575f80fd5b5061054c6004803603810190610547919061383c565b612da8565b60405161055d959493929190613be7565b60405180910390f35b5f8060015f8681526020019081526020015f206005015f8581526020019081526020015f209050806004015f8473ffffffffffffffffffffffffffffffffffffffff1673ffffffffffffffffffffffffffffffffffffffff1681526020019081526020015f20549150509392505050565b5f60015f8481526020019081526020015f2090505f73ffffffffffffffffffffffffffffffffffffffff16816001015f9054906101000a900473ffffffffffffffffffffffffffffffffffffffff1673ffffffffffffffffffffffffffffffffffffffff160361067c576040517f08c379a000000000000000000000000000000000000000000000000000000000815260040161067390613ca5565b60405180910390fd5b806001015f9054906101000a900473ffffffffffffffffffffffffffffffffffffffff1673ffffffffffffffffffffffffffffffffffffffff163373ffffffffffffffffffffffffffffffffffffffff161461070d576040517f08c379a000000000000000000000000000000000000000000000000000000000815260040161070490613d0d565b60405180910390fd5b5f73ffffffffffffffffffffffffffffffffffffffff168273ffffffffffffffffffffffffffffffffffffffff160361077b576040517f08c379a000000000000000000000000000000000000000000000000000000000815260040161077290613d75565b60405180910390fd5b806003015f8373ffffffffffffffffffffffffffffffffffffffff1673ffffffffffffffffffffffffffffffffffffffff1681526020019081526020015f205f9054906101000a900460ff16610806576040517f08c379a00000000000000000000000000000000000000000000000000000000081526004016107fd90613ddd565b60405180910390fd5b5f816001015f9054906101000a900473ffffffffffffffffffffffffffffffffffffffff16905082826001015f6101000a81548173ffffffffffffffffffffffffffffffffffffffff021916908373ffffffffffffffffffffffffffffffffffffffff1602179055508273ffffffffffffffffffffffffffffffffffffffff168173ffffffffffffffffffffffffffffffffffffffff16857f34663fb7cdece45f4bed32532aefe29f2e70265a8680868bf2c8c16d9dc201ce60405160405180910390a450505050565b5f8060015f8681526020019081526020015f2090505f816005015f8681526020019081526020015f2090505f816001015411610941576040517f08c379a000000000000000000000000000000000000000000000000000000000815260040161093890613e45565b60405180910390fd5b816003015f8573ffffffffffffffffffffffffffffffffffffffff1673ffffffffffffffffffffffffffffffffffffffff1681526020019081526020015f205f9054906101000a900460ff166109cc576040517f08c379a00000000000000000000000000000000000000000000000000000000081526004016109c390613ead565b60405180910390fd5b5f816005015490505f826004015f8773ffffffffffffffffffffffffffffffffffffffff1673ffffffffffffffffffffffffffffffffffffffff1681526020019081526020015f20549050818110610a2a575f945050505050610a3d565b8082610a369190613ef8565b9450505050505b9392505050565b5f60015f8481526020019081526020015f2090505f73ffffffffffffffffffffffffffffffffffffffff16816001015f9054906101000a900473ffffffffffffffffffffffffffffffffffffffff1673ffffffffffffffffffffffffffffffffffffffff1603610ae9576040517f08c379a0000000000000000000000000000000000000000000000000000000008152600401610ae090613ca5565b60405180910390fd5b806001015f9054906101000a900473ffffffffffffffffffffffffffffffffffffffff1673ffffffffffffffffffffffffffffffffffffffff163373ffffffffffffffffffffffffffffffffffffffff1614610b7a576040517f08c379a0000000000000000000000000000000000000000000000000000000008152600401610b7190613f75565b60405180910390fd5b5f5b8251811015610d6d575f838281518110610b9957610b98613f93565b5b602002602001015190505f73ffffffffffffffffffffffffffffffffffffffff168173ffffffffffffffffffffffffffffffffffffffff1603610c11576040517f08c379a0000000000000000000000000000000000000000000000000000000008152600401610c089061400a565b60405180910390fd5b826003015f8273ffffffffffffffffffffffffffffffffffffffff1673ffffffffffffffffffffffffffffffffffffffff1681526020019081526020015f205f9054906101000a900460ff16610d5f578260020181908060018154018082558091505060019003905f5260205f20015f9091909190916101000a81548173ffffffffffffffffffffffffffffffffffffffff021916908373ffffffffffffffffffffffffffffffffffffffff1602179055506001836003015f8373ffffffffffffffffffffffffffffffffffffffff1673ffffffffffffffffffffffffffffffffffffffff1681526020019081526020015f205f6101000a81548160ff0219169083151502179055508073ffffffffffffffffffffffffffffffffffffffff16857f443f7380a59e4ff474b43d39e87fd7b0b13c138f145efe1a272b48ff4e50832560405160405180910390a35b508080600101915050610b7c565b50505050565b5f60015f8481526020019081526020015f2090505f73ffffffffffffffffffffffffffffffffffffffff16816001015f9054906101000a900473ffffffffffffffffffffffffffffffffffffffff1673ffffffffffffffffffffffffffffffffffffffff1603610e18576040517f08c379a0000000000000000000000000000000000000000000000000000000008152600401610e0f90613ca5565b60405180910390fd5b5f816004015f8481526020019081526020015f2090505f816001015411610e74576040517f08c379a0000000000000000000000000000000000000000000000000000000008152600401610e6b90614072565b60405180910390fd5b80600301544210610eba576040517f08c379a0000000000000000000000000000000000000000000000000000000008152600401610eb1906140da565b60405180910390fd5b806006015f9054906101000a900460ff1615610f0b576040517f08c379a0000000000000000000000000000000000000000000000000000000008152600401610f0290614142565b60405180910390fd5b5f3411610f4d576040517f08c379a0000000000000000000000000000000000000000000000000000000008152600401610f44906141aa565b60405180910390fd5b816003015f3373ffffffffffffffffffffffffffffffffffffffff1673ffffffffffffffffffffffffffffffffffffffff1681526020019081526020015f205f9054906101000a900460ff16610fd8576040517f08c379a0000000000000000000000000000000000000000000000000000000008152600401610fcf90614238565b60405180910390fd5b5f816004015f3373ffffffffffffffffffffffffffffffffffffffff1673ffffffffffffffffffffffffffffffffffffffff1681526020019081526020015f205403611081578060050133908060018154018082558091505060019003905f5260205f20015f9091909190916101000a81548173ffffffffffffffffffffffffffffffffffffffff021916908373ffffffffffffffffffffffffffffffffffffffff1602179055505b34816002015f8282546110949190614256565b9250508190555034816004015f3373ffffffffffffffffffffffffffffffffffffffff1673ffffffffffffffffffffffffffffffffffffffff1681526020019081526020015f205f8282546110e99190614256565b925050819055503373ffffffffffffffffffffffffffffffffffffffff1683857f11bfe06cab306870bd20ccf0ba9baecc5275f39c28419943f429294cb04580a1346040516111389190613274565b60405180910390a450505050565b5f60015f8381526020019081526020015f2090505f73ffffffffffffffffffffffffffffffffffffffff16816001015f9054906101000a900473ffffffffffffffffffffffffffffffffffffffff1673ffffffffffffffffffffffffffffffffffffffff16036111eb576040517f08c379a00000000000000000000000000000000000000000000000000000000081526004016111e290613ca5565b60405180910390fd5b5f816005015f8581526020019081526020015f2090505f816001015411611247576040517f08c379a000000000000000000000000000000000000000000000000000000000815260040161123e90613e45565b60405180910390fd5b5f3411611289576040517f08c379a0000000000000000000000000000000000000000000000000000000008152600401611280906142d3565b60405180910390fd5b5f816004015f3373ffffffffffffffffffffffffffffffffffffffff1673ffffffffffffffffffffffffffffffffffffffff1681526020019081526020015f205403611332578060070133908060018154018082558091505060019003905f5260205f20015f9091909190916101000a81548173ffffffffffffffffffffffffffffffffffffffff021916908373ffffffffffffffffffffffffffffffffffffffff1602179055505b34816004015f3373ffffffffffffffffffffffffffffffffffffffff1673ffffffffffffffffffffffffffffffffffffffff1681526020019081526020015f205f8282546113809190614256565b9250508190555034816002015f82825461139a9190614256565b925050819055503373ffffffffffffffffffffffffffffffffffffffff1684847faea36ae64e601f72429654bf1a60ca338d9d503a7bc2873f165d043823506ef0346040516113e99190613274565b60405180910390a450505050565b600160025f8282546114099190614256565b925050819055505f60025490505f60015f8381526020019081526020015f20905082815f01908161143a91906144eb565b5033816001015f6101000a81548173ffffffffffffffffffffffffffffffffffffffff021916908373ffffffffffffffffffffffffffffffffffffffff1602179055508060020133908060018154018082558091505060019003905f5260205f20015f9091909190916101000a81548173ffffffffffffffffffffffffffffffffffffffff021916908373ffffffffffffffffffffffffffffffffffffffff1602179055506001816003015f3373ffffffffffffffffffffffffffffffffffffffff1673ffffffffffffffffffffffffffffffffffffffff1681526020019081526020015f205f6101000a81548160ff0219169083151502179055503373ffffffffffffffffffffffffffffffffffffffff16827f6958b51b54d963fa8eeeea5b61b83a9ad28f9ee9d5a2f1b8495e6866cb534bb160405160405180910390a3505050565b5f60015f8481526020019081526020015f206003015f8373ffffffffffffffffffffffffffffffffffffffff1673ffffffffffffffffffffffffffffffffffffffff1681526020019081526020015f205f9054906101000a900460ff16905092915050565b5f60015f8581526020019081526020015f2090505f73ffffffffffffffffffffffffffffffffffffffff16816001015f9054906101000a900473ffffffffffffffffffffffffffffffffffffffff1673ffffffffffffffffffffffffffffffffffffffff1603611689576040517f08c379a000000000000000000000000000000000000000000000000000000000815260040161168090613ca5565b60405180910390fd5b806001015f9054906101000a900473ffffffffffffffffffffffffffffffffffffffff1673ffffffffffffffffffffffffffffffffffffffff163373ffffffffffffffffffffffffffffffffffffffff161461171a576040517f08c379a000000000000000000000000000000000000000000000000000000000815260040161171190614604565b60405180910390fd5b5f816004015f8581526020019081526020015f2090505f816003015411611776576040517f08c379a000000000000000000000000000000000000000000000000000000000815260040161176d9061466c565b60405180910390fd5b806006015f9054906101000a900460ff16156117c7576040517f08c379a00000000000000000000000000000000000000000000000000000000081526004016117be906146d4565b60405180910390fd5b8060030154831161180d576040517f08c379a00000000000000000000000000000000000000000000000000000000081526004016118049061473c565b60405180910390fd5b8281600301819055508284867fd56d0c78c63c5f1cca6780b0441ca8ed2b8bf68570664eb11019962d46a207d160405160405180910390a45050505050565b61185461312a565b5f60015f8481526020019081526020015f2090505f73ffffffffffffffffffffffffffffffffffffffff16816001015f9054906101000a900473ffffffffffffffffffffffffffffffffffffffff1673ffffffffffffffffffffffffffffffffffffffff16036118f9576040517f08c379a00000000000000000000000000000000000000000000000000000000081526004016118f090613ca5565b60405180910390fd5b5f816005015f8481526020019081526020015f2090505f816001015411611955576040517f08c379a000000000000000000000000000000000000000000000000000000000815260040161194c90613e45565b60405180910390fd5b806008015f9054906101000a900460ff16156119a6576040517f08c379a000000000000000000000000000000000000000000000000000000000815260040161199d906147a4565b60405180910390fd5b8060010154816002015410156119f1576040517f08c379a00000000000000000000000000000000000000000000000000000000081526004016119e89061480c565b60405180910390fd5b3373ffffffffffffffffffffffffffffffffffffffff16816003015f9054906101000a900473ffffffffffffffffffffffffffffffffffffffff1673ffffffffffffffffffffffffffffffffffffffff1614611a82576040517f08c379a0000000000000000000000000000000000000000000000000000000008152600401611a7990614874565b60405180910390fd5b6001816008015f6101000a81548160ff0219169083151502179055505f816002015490505f82600201819055505f3373ffffffffffffffffffffffffffffffffffffffff1682604051611ad4906148bf565b5f6040518083038185875af1925050503d805f8114611b0e576040519150601f19603f3d011682016040523d82523d5f602084013e611b13565b606091505b5050905080611b57576040517f08c379a0000000000000000000000000000000000000000000000000000000008152600401611b4e9061491d565b60405180910390fd5b50505050611b6361316e565b5050565b60025481565b5f60015f8581526020019081526020015f2090505f73ffffffffffffffffffffffffffffffffffffffff16816001015f9054906101000a900473ffffffffffffffffffffffffffffffffffffffff1673ffffffffffffffffffffffffffffffffffffffff1603611c12576040517f08c379a0000000000000000000000000000000000000000000000000000000008152600401611c0990613ca5565b60405180910390fd5b806003015f3373ffffffffffffffffffffffffffffffffffffffff1673ffffffffffffffffffffffffffffffffffffffff1681526020019081526020015f205f9054906101000a900460ff16611c9d576040517f08c379a0000000000000000000000000000000000000000000000000000000008152600401611c9490614985565b60405180910390fd5b5f816002018054905011611ce6576040517f08c379a0000000000000000000000000000000000000000000000000000000008152600401611cdd906149ed565b60405180910390fd5b5f8211611d28576040517f08c379a0000000000000000000000000000000000000000000000000000000008152600401611d1f90614a55565b60405180910390fd5b806007015f815480929190611d3c90614a73565b91905055505f816007015490505f826005015f8381526020019081526020015f20905083816001018190555084815f019081611d7891906144eb565b5033816003015f6101000a81548173ffffffffffffffffffffffffffffffffffffffff021916908373ffffffffffffffffffffffffffffffffffffffff160217905550826002018054905084611dce9190614ae7565b8160050181905550826002018054905084611de99190614b17565b81600601819055508382877ff8e4f006495c20d4e4d2499d0ae2957971f167c1c7746e885b9b40b7f68baa0733604051611e239190614b47565b60405180910390a4505050505050565b6060805f60015f8681526020019081526020015f206005015f8581526020019081526020015f2090505f816007018054905090505f8167ffffffffffffffff811115611e8257611e816132df565b5b604051908082528060200260200182016040528015611eb05781602001602082028036833780820191505090505b5090505f8267ffffffffffffffff811115611ece57611ecd6132df565b5b604051908082528060200260200182016040528015611efc5781602001602082028036833780820191505090505b5090505f5b83811015612005575f856007018281548110611f2057611f1f613f93565b5b905f5260205f20015f9054906101000a900473ffffffffffffffffffffffffffffffffffffffff16905080848381518110611f5e57611f5d613f93565b5b602002602001019073ffffffffffffffffffffffffffffffffffffffff16908173ffffffffffffffffffffffffffffffffffffffff1681525050856004015f8273ffffffffffffffffffffffffffffffffffffffff1673ffffffffffffffffffffffffffffffffffffffff1681526020019081526020015f2054838381518110611feb57611fea613f93565b5b602002602001018181525050508080600101915050611f01565b50818195509550505050509250929050565b5f8060015f8681526020019081526020015f206004015f8581526020019081526020015f209050806004015f8473ffffffffffffffffffffffffffffffffffffffff1673ffffffffffffffffffffffffffffffffffffffff1681526020019081526020015f20549150509392505050565b61209061312a565b5f60015f8481526020019081526020015f2090505f73ffffffffffffffffffffffffffffffffffffffff16816001015f9054906101000a900473ffffffffffffffffffffffffffffffffffffffff1673ffffffffffffffffffffffffffffffffffffffff1603612135576040517f08c379a000000000000000000000000000000000000000000000000000000000815260040161212c90613ca5565b60405180910390fd5b806001015f9054906101000a900473ffffffffffffffffffffffffffffffffffffffff1673ffffffffffffffffffffffffffffffffffffffff163373ffffffffffffffffffffffffffffffffffffffff16146121c6576040517f08c379a00000000000000000000000000000000000000000000000000000000081526004016121bd90614baa565b60405180910390fd5b5f816004015f8481526020019081526020015f2090505f816001015411612222576040517f08c379a000000000000000000000000000000000000000000000000000000000815260040161221990614072565b60405180910390fd5b5f816002015411612268576040517f08c379a000000000000000000000000000000000000000000000000000000000815260040161225f90614c12565b60405180910390fd5b806006015f9054906101000a900460ff16156122b9576040517f08c379a00000000000000000000000000000000000000000000000000000000081526004016122b090614c7a565b60405180910390fd5b806001015481600201541015806122d35750428160030154105b612312576040517f08c379a000000000000000000000000000000000000000000000000000000000815260040161230990614d08565b60405180910390fd5b6001816006015f6101000a81548160ff0219169083151502179055505f816002015490505f82600201819055505f3373ffffffffffffffffffffffffffffffffffffffff1682604051612364906148bf565b5f6040518083038185875af1925050503d805f811461239e576040519150601f19603f3d011682016040523d82523d5f602084013e6123a3565b606091505b50509050806123e7576040517f08c379a00000000000000000000000000000000000000000000000000000000081526004016123de90614d70565b60405180910390fd5b505050506123f361316e565b5050565b606060015f8381526020019081526020015f2060020180548060200260200160405190810160405280929190818152602001828054801561248a57602002820191905f5260205f20905b815f9054906101000a900473ffffffffffffffffffffffffffffffffffffffff1673ffffffffffffffffffffffffffffffffffffffff1681526020019060010190808311612441575b50505050509050919050565b6060805f60015f8681526020019081526020015f206004015f8581526020019081526020015f2090505f816005018054905090505f8167ffffffffffffffff8111156124e5576124e46132df565b5b6040519080825280602002602001820160405280156125135781602001602082028036833780820191505090505b5090505f8267ffffffffffffffff811115612531576125306132df565b5b60405190808252806020026020018201604052801561255f5781602001602082028036833780820191505090505b5090505f5b83811015612668575f85600501828154811061258357612582613f93565b5b905f5260205f20015f9054906101000a900473ffffffffffffffffffffffffffffffffffffffff169050808483815181106125c1576125c0613f93565b5b602002602001019073ffffffffffffffffffffffffffffffffffffffff16908173ffffffffffffffffffffffffffffffffffffffff1681525050856004015f8273ffffffffffffffffffffffffffffffffffffffff1673ffffffffffffffffffffffffffffffffffffffff1681526020019081526020015f205483838151811061264e5761264d613f93565b5b602002602001018181525050508080600101915050612564565b50818195509550505050509250929050565b60605f60605f60015f8681526020019081526020015f209050805f01816001015f9054906101000a900473ffffffffffffffffffffffffffffffffffffffff16826002018280546126ca9061431e565b80601f01602080910402602001604051908101604052809291908181526020018280546126f69061431e565b80156127415780601f1061271857610100808354040283529160200191612741565b820191905f5260205f20905b81548152906001019060200180831161272457829003601f168201915b50505050509250808054806020026020016040519081016040528092919081815260200182805480156127c657602002820191905f5260205f20905b815f9054906101000a900473ffffffffffffffffffffffffffffffffffffffff1673ffffffffffffffffffffffffffffffffffffffff168152602001906001019080831161277d575b50505050509050935093509350509193909250565b5f815f52600160205260405f20600281018054815f5260205f205f5b8281101561283c57808201805433810361282f57600185038401548083555f600187038601556001860387556001985050505061283c565b50506001810190506127f7565b505050505080612881576040517f08c379a000000000000000000000000000000000000000000000000000000000815260040161287890613ead565b60405180910390fd5b5050565b60608060608060605f60015f8881526020019081526020015f2090505f816006015490508067ffffffffffffffff8111156128c3576128c26132df565b5b6040519080825280602002602001820160405280156128f657816020015b60608152602001906001900390816128e15790505b5096508067ffffffffffffffff811115612913576129126132df565b5b6040519080825280602002602001820160405280156129415781602001602082028036833780820191505090505b5095508067ffffffffffffffff81111561295e5761295d6132df565b5b60405190808252806020026020018201604052801561298c5781602001602082028036833780820191505090505b5094508067ffffffffffffffff8111156129a9576129a86132df565b5b6040519080825280602002602001820160405280156129d75781602001602082028036833780820191505090505b5093508067ffffffffffffffff8111156129f4576129f36132df565b5b604051908082528060200260200182016040528015612a225781602001602082028036833780820191505090505b5092505f5b81811015612bae575f600182612a3d9190614256565b90505f846004015f8381526020019081526020015f209050805f018054612a639061431e565b80601f0160208091040260200160405190810160405280929190818152602001828054612a8f9061431e565b8015612ada5780601f10612ab157610100808354040283529160200191612ada565b820191905f5260205f20905b815481529060010190602001808311612abd57829003601f168201915b50505050508a8481518110612af257612af1613f93565b5b60200260200101819052508060010154898481518110612b1557612b14613f93565b5b6020026020010181815250508060020154888481518110612b3957612b38613f93565b5b6020026020010181815250508060030154878481518110612b5d57612b5c613f93565b5b602002602001018181525050806006015f9054906101000a900460ff16868481518110612b8d57612b8c613f93565b5b60200260200101901515908115158152505050508080600101915050612a27565b50505091939590929450565b5f60015f8681526020019081526020015f2090505f73ffffffffffffffffffffffffffffffffffffffff16816001015f9054906101000a900473ffffffffffffffffffffffffffffffffffffffff1673ffffffffffffffffffffffffffffffffffffffff1603612c5f576040517f08c379a0000000000000000000000000000000000000000000000000000000008152600401612c5690613ca5565b60405180910390fd5b806001015f9054906101000a900473ffffffffffffffffffffffffffffffffffffffff1673ffffffffffffffffffffffffffffffffffffffff163373ffffffffffffffffffffffffffffffffffffffff1614612cf0576040517f08c379a0000000000000000000000000000000000000000000000000000000008152600401612ce790614dd8565b60405180910390fd5b6001816006015f828254612d049190614256565b925050819055505f816006015490505f826004015f8381526020019081526020015f20905083816003018190555085815f019081612d4291906144eb565b508481600101819055505f81600201819055505f816006015f6101000a81548160ff0219169083151502179055508482887f32e80b9743f14531991f8778d27f41ac716eae53db4048f5e6f78da6cfe2c7cc60405160405180910390a450505050505050565b60608060608060605f60015f8881526020019081526020015f2090505f816007015490508067ffffffffffffffff811115612de657612de56132df565b5b604051908082528060200260200182016040528015612e1957816020015b6060815260200190600190039081612e045790505b5096508067ffffffffffffffff811115612e3657612e356132df565b5b604051908082528060200260200182016040528015612e645781602001602082028036833780820191505090505b5095508067ffffffffffffffff811115612e8157612e806132df565b5b604051908082528060200260200182016040528015612eaf5781602001602082028036833780820191505090505b5094508067ffffffffffffffff811115612ecc57612ecb6132df565b5b604051908082528060200260200182016040528015612efa5781602001602082028036833780820191505090505b5093508067ffffffffffffffff811115612f1757612f166132df565b5b604051908082528060200260200182016040528015612f455781602001602082028036833780820191505090505b5092505f5b8181101561311e575f600182612f609190614256565b90505f846005015f8381526020019081526020015f209050805f018054612f869061431e565b80601f0160208091040260200160405190810160405280929190818152602001828054612fb29061431e565b8015612ffd5780601f10612fd457610100808354040283529160200191612ffd565b820191905f5260205f20905b815481529060010190602001808311612fe057829003601f168201915b50505050508a848151811061301557613014613f93565b5b6020026020010181905250806001015489848151811061303857613037613f93565b5b602002602001018181525050806002015488848151811061305c5761305b613f93565b5b602002602001018181525050806003015f9054906101000a900473ffffffffffffffffffffffffffffffffffffffff1687848151811061309f5761309e613f93565b5b602002602001019073ffffffffffffffffffffffffffffffffffffffff16908173ffffffffffffffffffffffffffffffffffffffff1681525050806008015f9054906101000a900460ff168684815181106130fd576130fc613f93565b5b60200260200101901515908115158152505050508080600101915050612f4a565b50505091939590929450565b60025f5403613165576040517f3ee5aeb500000000000000000000000000000000000000000000000000000000815260040160405180910390fd5b60025f81905550565b60015f81905550565b5f604051905090565b5f80fd5b5f80fd5b5f819050919050565b61319a81613188565b81146131a4575f80fd5b50565b5f813590506131b581613191565b92915050565b5f73ffffffffffffffffffffffffffffffffffffffff82169050919050565b5f6131e4826131bb565b9050919050565b6131f4816131da565b81146131fe575f80fd5b50565b5f8135905061320f816131eb565b92915050565b5f805f6060848603121561322c5761322b613180565b5b5f613239868287016131a7565b935050602061324a868287016131a7565b925050604061325b86828701613201565b9150509250925092565b61326e81613188565b82525050565b5f6020820190506132875f830184613265565b92915050565b5f80604083850312156132a3576132a2613180565b5b5f6132b0858286016131a7565b92505060206132c185828601613201565b9150509250929050565b5f80fd5b5f601f19601f8301169050919050565b7f4e487b71000000000000000000000000000000000000000000000000000000005f52604160045260245ffd5b613315826132cf565b810181811067ffffffffffffffff82111715613334576133336132df565b5b80604052505050565b5f613346613177565b9050613352828261330c565b919050565b5f67ffffffffffffffff821115613371576133706132df565b5b602082029050602081019050919050565b5f80fd5b5f61339861339384613357565b61333d565b905080838252602082019050602084028301858111156133bb576133ba613382565b5b835b818110156133e457806133d08882613201565b8452602084019350506020810190506133bd565b5050509392505050565b5f82601f830112613402576134016132cb565b5b8135613412848260208601613386565b91505092915050565b5f806040838503121561343157613430613180565b5b5f61343e858286016131a7565b925050602083013567ffffffffffffffff81111561345f5761345e613184565b5b61346b858286016133ee565b9150509250929050565b5f806040838503121561348b5761348a613180565b5b5f613498858286016131a7565b92505060206134a9858286016131a7565b9150509250929050565b5f80fd5b5f67ffffffffffffffff8211156134d1576134d06132df565b5b6134da826132cf565b9050602081019050919050565b828183375f83830152505050565b5f613507613502846134b7565b61333d565b905082815260208101848484011115613523576135226134b3565b5b61352e8482856134e7565b509392505050565b5f82601f83011261354a576135496132cb565b5b813561355a8482602086016134f5565b91505092915050565b5f6020828403121561357857613577613180565b5b5f82013567ffffffffffffffff81111561359557613594613184565b5b6135a184828501613536565b91505092915050565b5f8115159050919050565b6135be816135aa565b82525050565b5f6020820190506135d75f8301846135b5565b92915050565b5f805f606084860312156135f4576135f3613180565b5b5f613601868287016131a7565b9350506020613612868287016131a7565b9250506040613623868287016131a7565b9150509250925092565b5f805f6060848603121561364457613643613180565b5b5f613651868287016131a7565b935050602084013567ffffffffffffffff81111561367257613671613184565b5b61367e86828701613536565b925050604061368f868287016131a7565b9150509250925092565b5f81519050919050565b5f82825260208201905092915050565b5f819050602082019050919050565b6136cb816131da565b82525050565b5f6136dc83836136c2565b60208301905092915050565b5f602082019050919050565b5f6136fe82613699565b61370881856136a3565b9350613713836136b3565b805f5b8381101561374357815161372a88826136d1565b9750613735836136e8565b925050600181019050613716565b5085935050505092915050565b5f81519050919050565b5f82825260208201905092915050565b5f819050602082019050919050565b61378281613188565b82525050565b5f6137938383613779565b60208301905092915050565b5f602082019050919050565b5f6137b582613750565b6137bf818561375a565b93506137ca8361376a565b805f5b838110156137fa5781516137e18882613788565b97506137ec8361379f565b9250506001810190506137cd565b5085935050505092915050565b5f6040820190508181035f83015261381f81856136f4565b9050818103602083015261383381846137ab565b90509392505050565b5f6020828403121561385157613850613180565b5b5f61385e848285016131a7565b91505092915050565b5f6020820190508181035f83015261387f81846136f4565b905092915050565b5f81519050919050565b5f82825260208201905092915050565b8281835e5f83830152505050565b5f6138b982613887565b6138c38185613891565b93506138d38185602086016138a1565b6138dc816132cf565b840191505092915050565b6138f0816131da565b82525050565b5f6060820190508181035f83015261390e81866138af565b905061391d60208301856138e7565b818103604083015261392f81846136f4565b9050949350505050565b5f81519050919050565b5f82825260208201905092915050565b5f819050602082019050919050565b5f82825260208201905092915050565b5f61397c82613887565b6139868185613962565b93506139968185602086016138a1565b61399f816132cf565b840191505092915050565b5f6139b58383613972565b905092915050565b5f602082019050919050565b5f6139d382613939565b6139dd8185613943565b9350836020820285016139ef85613953565b805f5b85811015613a2a5784840389528151613a0b85826139aa565b9450613a16836139bd565b925060208a019950506001810190506139f2565b50829750879550505050505092915050565b5f81519050919050565b5f82825260208201905092915050565b5f819050602082019050919050565b613a6e816135aa565b82525050565b5f613a7f8383613a65565b60208301905092915050565b5f602082019050919050565b5f613aa182613a3c565b613aab8185613a46565b9350613ab683613a56565b805f5b83811015613ae6578151613acd8882613a74565b9750613ad883613a8b565b925050600181019050613ab9565b5085935050505092915050565b5f60a0820190508181035f830152613b0b81886139c9565b90508181036020830152613b1f81876137ab565b90508181036040830152613b3381866137ab565b90508181036060830152613b4781856137ab565b90508181036080830152613b5b8184613a97565b90509695505050505050565b5f805f8060808587031215613b7f57613b7e613180565b5b5f613b8c878288016131a7565b945050602085013567ffffffffffffffff811115613bad57613bac613184565b5b613bb987828801613536565b9350506040613bca878288016131a7565b9250506060613bdb878288016131a7565b91505092959194509250565b5f60a0820190508181035f830152613bff81886139c9565b90508181036020830152613c1381876137ab565b90508181036040830152613c2781866137ab565b90508181036060830152613c3b81856136f4565b90508181036080830152613c4f8184613a97565b90509695505050505050565b7f67726f757020646f6573206e6f742065786973740000000000000000000000005f82015250565b5f613c8f601483613891565b9150613c9a82613c5b565b602082019050919050565b5f6020820190508181035f830152613cbc81613c83565b9050919050565b7f4f6e6c792063726561746f722063616e207472616e73666572000000000000005f82015250565b5f613cf7601983613891565b9150613d0282613cc3565b602082019050919050565b5f6020820190508181035f830152613d2481613ceb565b9050919050565b7f496e76616c6964206e65772063726561746f72000000000000000000000000005f82015250565b5f613d5f601383613891565b9150613d6a82613d2b565b602082019050919050565b5f6020820190508181035f830152613d8c81613d53565b9050919050565b7f6e65772063726561746f72206d7573742062652061206d656d626572000000005f82015250565b5f613dc7601c83613891565b9150613dd282613d93565b602082019050919050565b5f6020820190508181035f830152613df481613dbb565b9050919050565b7f42696c6c20646f6573206e6f74206578697374000000000000000000000000005f82015250565b5f613e2f601383613891565b9150613e3a82613dfb565b602082019050919050565b5f6020820190508181035f830152613e5c81613e23565b9050919050565b7f4e6f742061206d656d62657200000000000000000000000000000000000000005f82015250565b5f613e97600c83613891565b9150613ea282613e63565b602082019050919050565b5f6020820190508181035f830152613ec481613e8b565b9050919050565b7f4e487b71000000000000000000000000000000000000000000000000000000005f52601160045260245ffd5b5f613f0282613188565b9150613f0d83613188565b9250828203905081811115613f2557613f24613ecb565b5b92915050565b7f6f6e6c792063726561746f722063616e20616464206d656d62657200000000005f82015250565b5f613f5f601b83613891565b9150613f6a82613f2b565b602082019050919050565b5f6020820190508181035f830152613f8c81613f53565b9050919050565b7f4e487b71000000000000000000000000000000000000000000000000000000005f52603260045260245ffd5b7f696e76616c6964206d656d6265720000000000000000000000000000000000005f82015250565b5f613ff4600e83613891565b9150613fff82613fc0565b602082019050919050565b5f6020820190508181035f83015261402181613fe8565b9050919050565b7f676f616c20646f6573206e6f74206578697374000000000000000000000000005f82015250565b5f61405c601383613891565b915061406782614028565b602082019050919050565b5f6020820190508181035f83015261408981614050565b9050919050565b7f676f616c206e6f7420696e2073657373696f6e000000000000000000000000005f82015250565b5f6140c4601383613891565b91506140cf82614090565b602082019050919050565b5f6020820190508181035f8301526140f1816140b8565b9050919050565b7f676f616c20616c72656164792077697468647261776e000000000000000000005f82015250565b5f61412c601683613891565b9150614137826140f8565b602082019050919050565b5f6020820190508181035f83015261415981614120565b9050919050565b7f656e7465722076616c696420616d6f756e7400000000000000000000000000005f82015250565b5f614194601283613891565b915061419f82614160565b602082019050919050565b5f6020820190508181035f8301526141c181614188565b9050919050565b7f6f6e6c792067726f7570206d656d626572732063616e20636f6e7472696275745f8201527f6500000000000000000000000000000000000000000000000000000000000000602082015250565b5f614222602183613891565b915061422d826141c8565b604082019050919050565b5f6020820190508181035f83015261424f81614216565b9050919050565b5f61426082613188565b915061426b83613188565b925082820190508082111561428357614282613ecb565b5b92915050565b7f4d7573742073656e6420455448000000000000000000000000000000000000005f82015250565b5f6142bd600d83613891565b91506142c882614289565b602082019050919050565b5f6020820190508181035f8301526142ea816142b1565b9050919050565b7f4e487b71000000000000000000000000000000000000000000000000000000005f52602260045260245ffd5b5f600282049050600182168061433557607f821691505b602082108103614348576143476142f1565b5b50919050565b5f819050815f5260205f209050919050565b5f6020601f8301049050919050565b5f82821b905092915050565b5f600883026143aa7fffffffffffffffffffffffffffffffffffffffffffffffffffffffffffffffff8261436f565b6143b4868361436f565b95508019841693508086168417925050509392505050565b5f819050919050565b5f6143ef6143ea6143e584613188565b6143cc565b613188565b9050919050565b5f819050919050565b614408836143d5565b61441c614414826143f6565b84845461437b565b825550505050565b5f90565b614430614424565b61443b8184846143ff565b505050565b5b8181101561445e576144535f82614428565b600181019050614441565b5050565b601f8211156144a3576144748161434e565b61447d84614360565b8101602085101561448c578190505b6144a061449885614360565b830182614440565b50505b505050565b5f82821c905092915050565b5f6144c35f19846008026144a8565b1980831691505092915050565b5f6144db83836144b4565b9150826002028217905092915050565b6144f482613887565b67ffffffffffffffff81111561450d5761450c6132df565b5b614517825461431e565b614522828285614462565b5f60209050601f831160018114614553575f8415614541578287015190505b61454b85826144d0565b8655506145b2565b601f1984166145618661434e565b5f5b8281101561458857848901518255600182019150602085019450602081019050614563565b868310156145a557848901516145a1601f8916826144b4565b8355505b6001600288020188555050505b505050505050565b7f4f6e6c792063726561746f722063616e20657874656e6420646561646c696e655f82015250565b5f6145ee602083613891565b91506145f9826145ba565b602082019050919050565b5f6020820190508181035f83015261461b816145e2565b9050919050565b7f476f616c20646f6573206e6f74206578697374000000000000000000000000005f82015250565b5f614656601383613891565b915061466182614622565b602082019050919050565b5f6020820190508181035f8301526146838161464a565b9050919050565b7f476f616c20616c72656164792077697468647261776e000000000000000000005f82015250565b5f6146be601683613891565b91506146c98261468a565b602082019050919050565b5f6020820190508181035f8301526146eb816146b2565b9050919050565b7f4e657720646561646c696e65206d757374206265206c617465720000000000005f82015250565b5f614726601a83613891565b9150614731826146f2565b602082019050919050565b5f6020820190508181035f8301526147538161471a565b9050919050565b7f416c7265616479207265696d62757273656400000000000000000000000000005f82015250565b5f61478e601283613891565b91506147998261475a565b602082019050919050565b5f6020820190508181035f8301526147bb81614782565b9050919050565b7f42696c6c206e6f742066756c6c792070616964000000000000000000000000005f82015250565b5f6147f6601383613891565b9150614801826147c2565b602082019050919050565b5f6020820190508181035f830152614823816147ea565b9050919050565b7f4f6e6c792062696c6c2063726561746f722063616e20776974686472617700005f82015250565b5f61485e601e83613891565b91506148698261482a565b602082019050919050565b5f6020820190508181035f83015261488b81614852565b9050919050565b5f81905092915050565b50565b5f6148aa5f83614892565b91506148b58261489c565b5f82019050919050565b5f6148c98261489f565b9150819050919050565b7f5769746864726177206661696c656400000000000000000000000000000000005f82015250565b5f614907600f83613891565b9150614912826148d3565b602082019050919050565b5f6020820190508181035f830152614934816148fb565b9050919050565b7f6f6e6c79206d656d626572732063616e206372656174652062696c6c730000005f82015250565b5f61496f601d83613891565b915061497a8261493b565b602082019050919050565b5f6020820190508181035f83015261499c81614963565b9050919050565b7f4e6f206d656d6265727320696e2067726f7570000000000000000000000000005f82015250565b5f6149d7601383613891565b91506149e2826149a3565b602082019050919050565b5f6020820190508181035f830152614a04816149cb565b9050919050565b7f496e76616c69642062696c6c20616d6f756e74000000000000000000000000005f82015250565b5f614a3f601383613891565b9150614a4a82614a0b565b602082019050919050565b5f6020820190508181035f830152614a6c81614a33565b9050919050565b5f614a7d82613188565b91507fffffffffffffffffffffffffffffffffffffffffffffffffffffffffffffffff8203614aaf57614aae613ecb565b5b600182019050919050565b7f4e487b71000000000000000000000000000000000000000000000000000000005f52601260045260245ffd5b5f614af182613188565b9150614afc83613188565b925082614b0c57614b0b614aba565b5b828204905092915050565b5f614b2182613188565b9150614b2c83613188565b925082614b3c57614b3b614aba565b5b828206905092915050565b5f602082019050614b5a5f8301846138e7565b92915050565b7f4f6e6c792063726561746f722063616e207769746864726177000000000000005f82015250565b5f614b94601983613891565b9150614b9f82614b60565b602082019050919050565b5f6020820190508181035f830152614bc181614b88565b9050919050565b7f6e6f2066756e647320746f2077697468647261770000000000000000000000005f82015250565b5f614bfc601483613891565b9150614c0782614bc8565b602082019050919050565b5f6020820190508181035f830152614c2981614bf0565b9050919050565b7f416c72656164792077697468647261776e0000000000000000000000000000005f82015250565b5f614c64601183613891565b9150614c6f82614c30565b602082019050919050565b5f6020820190508181035f830152614c9181614c58565b9050919050565b7f546172676574206e6f74206d657420616e6420646561646c696e65206e6f74205f8201527f7061737365640000000000000000000000000000000000000000000000000000602082015250565b5f614cf2602683613891565b9150614cfd82614c98565b604082019050919050565b5f6020820190508181035f830152614d1f81614ce6565b9050919050565b7f5472616e73666572206661696c656400000000000000000000000000000000005f82015250565b5f614d5a600f83613891565b9150614d6582614d26565b602082019050919050565b5f6020820190508181035f830152614d8781614d4e565b9050919050565b7f6f6e6c792063726561746f722063616e2063726561746520676f616c000000005f82015250565b5f614dc2601c83613891565b9150614dcd82614d8e565b602082019050919050565b5f6020820190508181035f830152614def81614db6565b905091905056fea2646970667358221220bd87c6315aa7b28ed73bcdb35928f2fb1c97cf016389d2b9a7e37ecbcb4d14e364736f6c63430008190033","linkReferences":{}},"methodIdentifiers":{"Contribute(uint256,uint256)":"4a8efe11","CreateBill(uint256,string,uint256)":"8f32b052","CreateGoal(uint256,string,uint256,uint256)":"dbc452f0","CreateGroup(string)":"7109ec2e","LeaveGroup(uint256)":"d408839b","addMember(uint256,address[])":"45b8d867","extendDeadline(uint256,uint256,uint256)":"7d5d8edc","getAllBills(uint256)":"e90a1596","getAllGoals(uint256)":"d8673655","getBillPayers(uint256,uint256)":"9a806bfd","getContribution(uint256,uint256,address)":"9b032342","getGoalContributors(uint256,uint256)":"c5b00a00","getGroup(uint256)":"ceb60654","getMembers(uint256)":"c477ecab","getOutstandingAmount(uint256,uint256,address)":"323ad28b","getPaidShare(uint256,uint256,address)":"13d43a88","groupCount()":"8f23b326","isMemberOf(uint256,address)":"788df6b7","payBillShare(uint256,uint256)":"5b5b21e3","transferCreator(uint256,address)":"1cc9bb21","withdrawBillFunds(uint256,uint256)":"8a03f088","withdrawGoalFunds(uint256,uint256)":"9b8a1c7e"},"id":20}