{"abi":[{"type":"function","name":"AddMember","inputs":[{"name":"_groupId","type":"uint256","internalType":"uint256"},{"name":"_member","type":"address[]","internalType":"address[]"}],"outputs":[],"stateMutability":"nonpayable"},{"type":"function","name":"Contribute","inputs":[{"name":"_groupId","type":"uint256","internalType":"uint256"},{"name":"_goalId","type":"uint256","internalType":"uint256"}],"outputs":[],"stateMutability":"payable"},{"type":"function","name":"CreateBill","inputs":[{"name":"_groupId","type":"uint256","internalType":"uint256"},{"name":"_description","type":"string","internalType":"string"},{"name":"_billAmount","type":"uint256","internalType":"uint256"}],"outputs":[],"stateMutability":"nonpayable"},{"type":"function","name":"CreateGoal","inputs":[{"name":"_groupId","type":"uint256","internalType":"uint256"},{"name":"_name","type":"string","internalType":"string"},{"name":"_targetAmount","type":"uint256","internalType":"uint256"},{"name":"_deadline","type":"uint256","internalType":"uint256"}],"outputs":[],"stateMutability":"nonpayable"},{"type":"function","name":"CreateGroup","inputs":[{"name":"_name","type":"string","internalType":"string"}],"outputs":[],"stateMutability":"nonpayable"},{"type":"function","name":"LeaveGroup","inputs":[{"name":"_groupId","type":"uint256","internalType":"uint256"}],"outputs":[],"stateMutability":"nonpayable"},{"type":"function","name":"extendDeadline","inputs":[{"name":"_groupId","type":"uint256","internalType":"uint256"},{"name":"_goalId","type":"uint256","internalType":"uint256"},{"name":"_newDeadline","type":"uint256","internalType":"uint256"}],"outputs":[],"stateMutability":"nonpayable"},{"type":"function","name":"getAllBills","inputs":[{"name":"_groupId","type":"uint256","internalType":"uint256"}],"outputs":[{"name":"descriptions","type":"string[]","internalType":"string[]"},{"name":"totalAmounts","type":"uint256[]","internalType":"uint256[]"},{"name":"paidAmounts","type":"uint256[]","internalType":"uint256[]"},{"name":"creators","type":"address[]","internalType":"address[]"},{"name":"reimbursed","type":"bool[]","internalType":"bool[]"}],"stateMutability":"view"},{"type":"function","name":"getAllGoals","inputs":[{"name":"_groupId","type":"uint256","internalType":"uint256"}],"outputs":[{"name":"names","type":"string[]","internalType":"string[]"},{"name":"targetAmounts","type":"uint256[]","internalType":"uint256[]"},{"name":"totalContributed","type":"uint256[]","internalType":"uint256[]"},{"name":"deadlines","type":"uint256[]","internalType":"uint256[]"},{"name":"withdrawn","type":"bool[]","internalType":"bool[]"}],"stateMutability":"view"},{"type":"function","name":"getBillPayers","inputs":[{"name":"_groupId","type":"uint256","internalType":"uint256"},{"name":"_billId","type":"uint256","internalType":"uint256"}],"outputs":[{"name":"","type":"address[]","internalType":"address[]"},{"name":"","type":"uint256[]","internalType":"uint256[]"}],"stateMutability":"view"},{"type":"function","name":"getContribution","inputs":[{"name":"_groupId","type":"uint256","internalType":"uint256"},{"name":"_goalId","type":"uint256","internalType":"uint256"},{"name":"_addr","type":"address","internalType":"address"}],"outputs":[{"name":"","type":"uint256","internalType":"uint256"}],"stateMutability":"view"},{"type":"function","name":"getGoalContributors","inputs":[{"name":"_groupId","type":"uint256","internalType":"uint256"},{"name":"_goalId","type":"uint256","internalType":"uint256"}],"outputs":[{"name":"","type":"address[]","internalType":"address[]"},{"name":"","type":"uint256[]","internalType":"uint256[]"}],"stateMutability":"view"},{"type":"function","name":"getGroup","inputs":[{"name":"_groupId","type":"uint256","internalType":"uint256"}],"outputs":[{"name":"","type":"string","internalType":"string"},{"name":"","type":"address","internalType":"address"},{"name":"","type":"address[]","internalType":"address[]"}],"stateMutability":"view"},{"type":"function","name":"getMembers","inputs":[{"name":"_groupId","type":"uint256","internalType":"uint256"}],"outputs":[{"name":"","type":"address[]","internalType":"address[]"}],"stateMutability":"view"},{"type":"function","name":"getOutstandingAmount","inputs":[{"name":"_groupId","type":"uint256","internalType":"uint256"},{"name":"_billId","type":"uint256","internalType":"uint256"},{"name":"_member","type":"address","internalType":"address"}],"outputs":[{"name":"outstanding","type":"uint256","internalType":"uint256"}],"stateMutability":"view"},{"type":"function","name":"getPaidShare","inputs":[{"name":"_groupId","type":"uint256","internalType":"uint256"},{"name":"_billId","type":"uint256","internalType":"uint256"},{"name":"_addr","type":"address","internalType":"address"}],"outputs":[{"name":"","type":"uint256","internalType":"uint256"}],"stateMutability":"view"},{"type":"function","name":"groupCount","inputs":[],"outputs":[{"name":"","type":"uint256","internalType":"uint256"}],"stateMutability":"view"},{"type":"function","name":"payBillShare","inputs":[{"name":"_billCount","type":"uint256","internalType":"uint256"},{"name":"_groupId","type":"uint256","internalType":"uint256"}],"outputs":[],"stateMutability":"payable"},{"type":"function","name":"transferCreator","inputs":[{"name":"_groupId","type":"uint256","internalType":"uint256"},{"name":"_newCreator","type":"address","internalType":"address"}],"outputs":[],"stateMutability":"nonpayable"},{"type":"function","name":"withdrawBillFunds","inputs":[{"name":"_groupId","type":"uint256","internalType":"uint256"},{"name":"_billId","type":"uint256","internalType":"uint256"}],"outputs":[],"stateMutability":"nonpayable"},{"type":"function","name":"withdrawGoalFunds","inputs":[{"name":"_groupId","type":"uint256","internalType":"uint256"},{"name":"_goalId","type":"uint256","internalType":"uint256"}],"outputs":[],"stateMutability":"nonpayable"},{"type":"event","name":"Addmember","inputs":[{"name":"groupId","type":"uint256","indexed":true,"internalType":"uint256"},{"name":"member","type":"address[]","indexed":true,"internalType":"address[]"}],"anonymous":false},{"type":"event","name":"BillCreated","inputs":[{"name":"groupId","type":"uint256","indexed":true,"internalType":"uint256"},{"name":"billId","type":"uint256","indexed":true,"internalType":"uint256"},{"name":"totalAmount","type":"uint256","indexed":true,"internalType":"uint256"},{"name":"creator","type":"address","indexed":false,"internalType":"address"}],"anonymous":false},{"type":"event","name":"BillPaid","inputs":[{"name":"groupId","type":"uint256","indexed":true,"internalType":"uint256"},{"name":"billId","type":"uint256","indexed":true,"internalType":"uint256"},{"name":"member","type":"uint256","indexed":true,"internalType":"uint256"},{"name":"amount","type":"uint256","indexed":false,"internalType":"uint256"}],"anonymous":false},{"type":"event","name":"ContributionMade","inputs":[{"name":"groupId","type":"uint256","indexed":true,"internalType":"uint256"},{"name":"goalId","type":"uint256","indexed":true,"internalType":"uint256"},{"name":"member","type":"address","indexed":true,"internalType":"address"},{"name":"amount","type":"uint256","indexed":false,"internalType":"uint256"}],"anonymous":false},{"type":"event","name":"CreatorTransferred","inputs":[{"name":"groupId","type":"uint256","indexed":true,"internalType":"uint256"},{"name":"oldCreator","type":"address","indexed":true,"internalType":"address"},{"name":"newCreator","type":"address","indexed":true,"internalType":"address"}],"anonymous":false},{"type":"event","name":"GoalCreated","inputs":[{"name":"groupId","type":"uint256","indexed":true,"internalType":"uint256"},{"name":"goalId","type":"uint256","indexed":true,"internalType":"uint256"},{"name":"targetAmount","type":"uint256","indexed":true,"internalType":"uint256"}],"anonymous":false},{"type":"event","name":"GoalDeadlineExtended","inputs":[{"name":"groupId","type":"uint256","indexed":true,"internalType":"uint256"},{"name":"goalId","type":"uint256","indexed":true,"internalType":"uint256"},{"name":"newDeadline","type":"uint256","indexed":true,"internalType":"uint256"}],"anonymous":false},{"type":"event","name":"GroupCreated","inputs":[{"name":"groupId","type":"uint256","indexed":true,"internalType":"uint256"},{"name":"creator","type":"address","indexed":true,"internalType":"address"}],"anonymous":false}],"bytecode":{"object":"0x6080604052348015600e575f80fd5b506140fe8061001c5f395ff3fe608060405260043610610129575f3560e01c80639a806bfd116100aa578063c74ba1d71161006e578063c74ba1d7146103e9578063ceb6065414610411578063d408839b1461044f578063d867365514610477578063dbc452f0146104b7578063e90a1596146104df57610129565b80639a806bfd146102cf5780639b0323421461030c5780639b8a1c7e14610348578063c477ecab14610370578063c5b00a00146103ac57610129565b80637109ec2e116100f15780637109ec2e146102055780637d5d8edc1461022d5780638a03f088146102555780638f23b3261461027d5780638f32b052146102a757610129565b806313d43a881461012d5780631cc9bb2114610169578063323ad28b146101915780634a8efe11146101cd5780635b5b21e3146101e9575b5f80fd5b348015610138575f80fd5b50610153600480360381019061014e9190612791565b61051f565b60405161016091906127f0565b60405180910390f35b348015610174575f80fd5b5061018f600480360381019061018a9190612809565b61058f565b005b34801561019c575f80fd5b506101b760048036038101906101b29190612791565b61076b565b6040516101c491906127f0565b60405180910390f35b6101e760048036038101906101e29190612847565b61089c565b005b61020360048036038101906101fe9190612847565b610b52565b005b348015610210575f80fd5b5061022b600480360381019061022691906129c1565b610d86565b005b348015610238575f80fd5b50610253600480360381019061024e9190612a08565b610e5d565b005b348015610260575f80fd5b5061027b60048036038101906102769190612847565b611033565b005b348015610288575f80fd5b50610291611261565b60405161029e91906127f0565b60405180910390f35b3480156102b2575f80fd5b506102cd60048036038101906102c89190612a58565b611267565b005b3480156102da575f80fd5b506102f560048036038101906102f09190612847565b6113ce565b604051610303929190612c32565b60405180910390f35b348015610317575f80fd5b50610332600480360381019061032d9190612791565b6115b1565b60405161033f91906127f0565b60405180910390f35b348015610353575f80fd5b5061036e60048036038101906103699190612847565b611621565b005b34801561037b575f80fd5b5061039660048036038101906103919190612c67565b61186c565b6040516103a39190612c92565b60405180910390f35b3480156103b7575f80fd5b506103d260048036038101906103cd9190612847565b61190a565b6040516103e0929190612c32565b60405180910390f35b3480156103f4575f80fd5b5061040f600480360381019061040a9190612d76565b611aed565b005b34801561041c575f80fd5b5061043760048036038101906104329190612c67565b611c7d565b60405161044693929190612e3f565b60405180910390f35b34801561045a575f80fd5b5061047560048036038101906104709190612c67565b611ddd565b005b348015610482575f80fd5b5061049d60048036038101906104989190612c67565b611e86565b6040516104ae959493929190613047565b60405180910390f35b3480156104c2575f80fd5b506104dd60048036038101906104d891906130bb565b6121ba565b005b3480156104ea575f80fd5b5061050560048036038101906105009190612c67565b61231b565b60405161051695949392919061313b565b60405180910390f35b5f805f808681526020019081526020015f206004015f8581526020019081526020015f209050806004015f8473ffffffffffffffffffffffffffffffffffffffff1673ffffffffffffffffffffffffffffffffffffffff1681526020019081526020015f20549150509392505050565b5f805f8481526020019081526020015f209050806001015f9054906101000a900473ffffffffffffffffffffffffffffffffffffffff1673ffffffffffffffffffffffffffffffffffffffff163373ffffffffffffffffffffffffffffffffffffffff1614610633576040517f08c379a000000000000000000000000000000000000000000000000000000000815260040161062a906131f9565b60405180910390fd5b5f73ffffffffffffffffffffffffffffffffffffffff168273ffffffffffffffffffffffffffffffffffffffff16036106a1576040517f08c379a000000000000000000000000000000000000000000000000000000000815260040161069890613261565b60405180910390fd5b5f816001015f9054906101000a900473ffffffffffffffffffffffffffffffffffffffff16905082826001015f6101000a81548173ffffffffffffffffffffffffffffffffffffffff021916908373ffffffffffffffffffffffffffffffffffffffff1602179055508273ffffffffffffffffffffffffffffffffffffffff168173ffffffffffffffffffffffffffffffffffffffff16857f34663fb7cdece45f4bed32532aefe29f2e70265a8680868bf2c8c16d9dc201ce60405160405180910390a450505050565b5f805f808681526020019081526020015f2090505f816004015f8681526020019081526020015f2090505f8160010154116107db576040517f08c379a00000000000000000000000000000000000000000000000000000000081526004016107d2906132c9565b60405180910390fd5b6107e5868561269c565b610824576040517f08c379a000000000000000000000000000000000000000000000000000000000815260040161081b90613331565b60405180910390fd5b5f816005015490505f826004015f8773ffffffffffffffffffffffffffffffffffffffff1673ffffffffffffffffffffffffffffffffffffffff1681526020019081526020015f20549050818110610882575f945050505050610895565b808261088e919061337c565b9450505050505b9392505050565b5f805f8481526020019081526020015f2090505f816003015f8481526020019081526020015f2090505f81600101541161090b576040517f08c379a0000000000000000000000000000000000000000000000000000000008152600401610902906133f9565b60405180910390fd5b80600301544210610951576040517f08c379a000000000000000000000000000000000000000000000000000000000815260040161094890613461565b60405180910390fd5b806006015f9054906101000a900460ff16156109a2576040517f08c379a0000000000000000000000000000000000000000000000000000000008152600401610999906134c9565b60405180910390fd5b5f34116109e4576040517f08c379a00000000000000000000000000000000000000000000000000000000081526004016109db90613531565b60405180910390fd5b5f816004015f3373ffffffffffffffffffffffffffffffffffffffff1673ffffffffffffffffffffffffffffffffffffffff1681526020019081526020015f205403610a8d578060050133908060018154018082558091505060019003905f5260205f20015f9091909190916101000a81548173ffffffffffffffffffffffffffffffffffffffff021916908373ffffffffffffffffffffffffffffffffffffffff1602179055505b34816002015f828254610aa0919061354f565b9250508190555034816004015f3373ffffffffffffffffffffffffffffffffffffffff1673ffffffffffffffffffffffffffffffffffffffff1681526020019081526020015f205f828254610af5919061354f565b925050819055503373ffffffffffffffffffffffffffffffffffffffff1683857f11bfe06cab306870bd20ccf0ba9baecc5275f39c28419943f429294cb04580a134604051610b4491906127f0565b60405180910390a450505050565b5f805f8381526020019081526020015f2090505f816004015f8581526020019081526020015f2090505f3411610bbd576040517f08c379a0000000000000000000000000000000000000000000000000000000008152600401610bb4906135cc565b60405180910390fd5b5f816001015411610c03576040517f08c379a0000000000000000000000000000000000000000000000000000000008152600401610bfa906132c9565b60405180910390fd5b5f610c0e843361269c565b90508015610d15575f826004015f3373ffffffffffffffffffffffffffffffffffffffff1673ffffffffffffffffffffffffffffffffffffffff1681526020019081526020015f205403610cbf578160070133908060018154018082558091505060019003905f5260205f20015f9091909190916101000a81548173ffffffffffffffffffffffffffffffffffffffff021916908373ffffffffffffffffffffffffffffffffffffffff1602179055505b34826004015f3373ffffffffffffffffffffffffffffffffffffffff1673ffffffffffffffffffffffffffffffffffffffff1681526020019081526020015f205f828254610d0d919061354f565b925050819055505b34826002015f828254610d28919061354f565b925050819055503373ffffffffffffffffffffffffffffffffffffffff1685857f67fea501e4524d5eed606fdc3c3d9540bb63d6049a8c06da18feb2bc798e953d34604051610d7791906127f0565b60405180910390a45050505050565b6001805f828254610d97919061354f565b925050819055505f6001549050815f808381526020019081526020015f205f019081610dc391906137e4565b50335f808381526020019081526020015f206001015f6101000a81548173ffffffffffffffffffffffffffffffffffffffff021916908373ffffffffffffffffffffffffffffffffffffffff1602179055503373ffffffffffffffffffffffffffffffffffffffff16817f6958b51b54d963fa8eeeea5b61b83a9ad28f9ee9d5a2f1b8495e6866cb534bb160405160405180910390a35050565b5f805f8581526020019081526020015f209050806001015f9054906101000a900473ffffffffffffffffffffffffffffffffffffffff1673ffffffffffffffffffffffffffffffffffffffff163373ffffffffffffffffffffffffffffffffffffffff1614610f01576040517f08c379a0000000000000000000000000000000000000000000000000000000008152600401610ef8906138fd565b60405180910390fd5b5f816003015f8581526020019081526020015f2090505f816003015411610f5d576040517f08c379a0000000000000000000000000000000000000000000000000000000008152600401610f5490613965565b60405180910390fd5b806006015f9054906101000a900460ff1615610fae576040517f08c379a0000000000000000000000000000000000000000000000000000000008152600401610fa5906139cd565b60405180910390fd5b80600301548311610ff4576040517f08c379a0000000000000000000000000000000000000000000000000000000008152600401610feb90613a35565b60405180910390fd5b8281600301819055508284867fd56d0c78c63c5f1cca6780b0441ca8ed2b8bf68570664eb11019962d46a207d160405160405180910390a45050505050565b5f805f8481526020019081526020015f206004015f8381526020019081526020015f209050806008015f9054906101000a900460ff16156110a9576040517f08c379a00000000000000000000000000000000000000000000000000000000081526004016110a090613a9d565b60405180910390fd5b8060010154816002015410156110f4576040517f08c379a00000000000000000000000000000000000000000000000000000000081526004016110eb90613b05565b60405180910390fd5b3373ffffffffffffffffffffffffffffffffffffffff16816003015f9054906101000a900473ffffffffffffffffffffffffffffffffffffffff1673ffffffffffffffffffffffffffffffffffffffff1614611185576040517f08c379a000000000000000000000000000000000000000000000000000000000815260040161117c90613b6d565b60405180910390fd5b6001816008015f6101000a81548160ff0219169083151502179055505f816002015490505f82600201819055505f3373ffffffffffffffffffffffffffffffffffffffff16826040516111d790613bb8565b5f6040518083038185875af1925050503d805f8114611211576040519150601f19603f3d011682016040523d82523d5f602084013e611216565b606091505b505090508061125a576040517f08c379a000000000000000000000000000000000000000000000000000000000815260040161125190613c16565b60405180910390fd5b5050505050565b60015481565b5f805f8581526020019081526020015f2090505f8160020180549050116112c3576040517f08c379a00000000000000000000000000000000000000000000000000000000081526004016112ba90613c7e565b60405180910390fd5b806006015f8154809291906112d790613c9c565b91905055505f816006015490505f826004015f8381526020019081526020015f20905083816001018190555084815f01908161131391906137e4565b5033816003015f6101000a81548173ffffffffffffffffffffffffffffffffffffffff021916908373ffffffffffffffffffffffffffffffffffffffff1602179055508260020180549050846113699190613d10565b81600501819055508260020180549050846113849190613d40565b81600601819055508382877ff8e4f006495c20d4e4d2499d0ae2957971f167c1c7746e885b9b40b7f68baa07336040516113be9190613d70565b60405180910390a4505050505050565b6060805f805f8681526020019081526020015f206004015f8581526020019081526020015f2090505f816007018054905090505f8167ffffffffffffffff81111561141c5761141b61289d565b5b60405190808252806020026020018201604052801561144a5781602001602082028036833780820191505090505b5090505f8267ffffffffffffffff8111156114685761146761289d565b5b6040519080825280602002602001820160405280156114965781602001602082028036833780820191505090505b5090505f5b8381101561159f575f8560070182815481106114ba576114b9613d89565b5b905f5260205f20015f9054906101000a900473ffffffffffffffffffffffffffffffffffffffff169050808483815181106114f8576114f7613d89565b5b602002602001019073ffffffffffffffffffffffffffffffffffffffff16908173ffffffffffffffffffffffffffffffffffffffff1681525050856004015f8273ffffffffffffffffffffffffffffffffffffffff1673ffffffffffffffffffffffffffffffffffffffff1681526020019081526020015f205483838151811061158557611584613d89565b5b60200260200101818152505050808060010191505061149b565b50818195509550505050509250929050565b5f805f808681526020019081526020015f206003015f8581526020019081526020015f209050806004015f8473ffffffffffffffffffffffffffffffffffffffff1673ffffffffffffffffffffffffffffffffffffffff1681526020019081526020015f20549150509392505050565b5f805f8481526020019081526020015f206003015f8381526020019081526020015f2090505f808481526020019081526020015f206001015f9054906101000a900473ffffffffffffffffffffffffffffffffffffffff1673ffffffffffffffffffffffffffffffffffffffff163373ffffffffffffffffffffffffffffffffffffffff16146116e6576040517f08c379a00000000000000000000000000000000000000000000000000000000081526004016116dd90613e00565b60405180910390fd5b806001015481600201541015806117005750428160030154105b61173f576040517f08c379a000000000000000000000000000000000000000000000000000000000815260040161173690613e68565b60405180910390fd5b806006015f9054906101000a900460ff1615611790576040517f08c379a000000000000000000000000000000000000000000000000000000000815260040161178790613ed0565b60405180910390fd5b6001816006015f6101000a81548160ff0219169083151502179055505f816002015490505f82600201819055505f3373ffffffffffffffffffffffffffffffffffffffff16826040516117e290613bb8565b5f6040518083038185875af1925050503d805f811461181c576040519150601f19603f3d011682016040523d82523d5f602084013e611821565b606091505b5050905080611865576040517f08c379a000000000000000000000000000000000000000000000000000000000815260040161185c90613f38565b60405180910390fd5b5050505050565b60605f808381526020019081526020015f206002018054806020026020016040519081016040528092919081815260200182805480156118fe57602002820191905f5260205f20905b815f9054906101000a900473ffffffffffffffffffffffffffffffffffffffff1673ffffffffffffffffffffffffffffffffffffffff16815260200190600101908083116118b5575b50505050509050919050565b6060805f805f8681526020019081526020015f206003015f8581526020019081526020015f2090505f816005018054905090505f8167ffffffffffffffff8111156119585761195761289d565b5b6040519080825280602002602001820160405280156119865781602001602082028036833780820191505090505b5090505f8267ffffffffffffffff8111156119a4576119a361289d565b5b6040519080825280602002602001820160405280156119d25781602001602082028036833780820191505090505b5090505f5b83811015611adb575f8560050182815481106119f6576119f5613d89565b5b905f5260205f20015f9054906101000a900473ffffffffffffffffffffffffffffffffffffffff16905080848381518110611a3457611a33613d89565b5b602002602001019073ffffffffffffffffffffffffffffffffffffffff16908173ffffffffffffffffffffffffffffffffffffffff1681525050856004015f8273ffffffffffffffffffffffffffffffffffffffff1673ffffffffffffffffffffffffffffffffffffffff1681526020019081526020015f2054838381518110611ac157611ac0613d89565b5b6020026020010181815250505080806001019150506119d7565b50818195509550505050509250929050565b5f805f8481526020019081526020015f206001015f9054906101000a900473ffffffffffffffffffffffffffffffffffffffff1690508073ffffffffffffffffffffffffffffffffffffffff163373ffffffffffffffffffffffffffffffffffffffff1614611b91576040517f08c379a0000000000000000000000000000000000000000000000000000000008152600401611b8890613fa0565b60405180910390fd5b5f5b8251811015611c34575f808581526020019081526020015f20600201838281518110611bc257611bc1613d89565b5b6020026020010151908060018154018082558091505060019003905f5260205f20015f9091909190916101000a81548173ffffffffffffffffffffffffffffffffffffffff021916908373ffffffffffffffffffffffffffffffffffffffff1602179055508080600101915050611b93565b5081604051611c43919061404a565b6040518091039020837f84dbf200523e6061adb4959c2322706fb17572455660363c21f9b3ea425372ba60405160405180910390a3505050565b60605f60605f805f8681526020019081526020015f209050805f01816001015f9054906101000a900473ffffffffffffffffffffffffffffffffffffffff1682600201828054611ccc90613617565b80601f0160208091040260200160405190810160405280929190818152602001828054611cf890613617565b8015611d435780601f10611d1a57610100808354040283529160200191611d43565b820191905f5260205f20905b815481529060010190602001808311611d2657829003601f168201915b5050505050925080805480602002602001604051908101604052809291908181526020018280548015611dc857602002820191905f5260205f20905b815f9054906101000a900473ffffffffffffffffffffffffffffffffffffffff1673ffffffffffffffffffffffffffffffffffffffff1681526020019060010190808311611d7f575b50505050509050935093509350509193909250565b5f815f525f60205260405f20600281018054815f5260205f205f5b82811015611e3d578082018054338103611e3057600185038401548083555f6001870386015560018603875560019850505050611e3d565b5050600181019050611df8565b505050505080611e82576040517f08c379a0000000000000000000000000000000000000000000000000000000008152600401611e7990613331565b60405180910390fd5b5050565b60608060608060605f805f8881526020019081526020015f2090505f816005015490508067ffffffffffffffff811115611ec357611ec261289d565b5b604051908082528060200260200182016040528015611ef657816020015b6060815260200190600190039081611ee15790505b5096508067ffffffffffffffff811115611f1357611f1261289d565b5b604051908082528060200260200182016040528015611f415781602001602082028036833780820191505090505b5095508067ffffffffffffffff811115611f5e57611f5d61289d565b5b604051908082528060200260200182016040528015611f8c5781602001602082028036833780820191505090505b5094508067ffffffffffffffff811115611fa957611fa861289d565b5b604051908082528060200260200182016040528015611fd75781602001602082028036833780820191505090505b5093508067ffffffffffffffff811115611ff457611ff361289d565b5b6040519080825280602002602001820160405280156120225781602001602082028036833780820191505090505b5092505f5b818110156121ae575f60018261203d919061354f565b90505f846003015f8381526020019081526020015f209050805f01805461206390613617565b80601f016020809104026020016040519081016040528092919081815260200182805461208f90613617565b80156120da5780601f106120b1576101008083540402835291602001916120da565b820191905f5260205f20905b8154815290600101906020018083116120bd57829003601f168201915b50505050508a84815181106120f2576120f1613d89565b5b6020026020010181905250806001015489848151811061211557612114613d89565b5b602002602001018181525050806002015488848151811061213957612138613d89565b5b602002602001018181525050806003015487848151811061215d5761215c613d89565b5b602002602001018181525050806006015f9054906101000a900460ff1686848151811061218d5761218c613d89565b5b60200260200101901515908115158152505050508080600101915050612027565b50505091939590929450565b5f805f8681526020019081526020015f2090505f816001015f9054906101000a900473ffffffffffffffffffffffffffffffffffffffff1690508073ffffffffffffffffffffffffffffffffffffffff163373ffffffffffffffffffffffffffffffffffffffff1614612262576040517f08c379a0000000000000000000000000000000000000000000000000000000008152600401612259906140aa565b60405180910390fd5b6001826005015f828254612276919061354f565b925050819055505f826005015490505f836003015f8381526020019081526020015f20905084816003018190555086815f0190816122b491906137e4565b508581600101819055505f81600201819055505f816006015f6101000a81548160ff0219169083151502179055508582897f32e80b9743f14531991f8778d27f41ac716eae53db4048f5e6f78da6cfe2c7cc60405160405180910390a45050505050505050565b60608060608060605f805f8881526020019081526020015f2090505f816006015490508067ffffffffffffffff8111156123585761235761289d565b5b60405190808252806020026020018201604052801561238b57816020015b60608152602001906001900390816123765790505b5096508067ffffffffffffffff8111156123a8576123a761289d565b5b6040519080825280602002602001820160405280156123d65781602001602082028036833780820191505090505b5095508067ffffffffffffffff8111156123f3576123f261289d565b5b6040519080825280602002602001820160405280156124215781602001602082028036833780820191505090505b5094508067ffffffffffffffff81111561243e5761243d61289d565b5b60405190808252806020026020018201604052801561246c5781602001602082028036833780820191505090505b5093508067ffffffffffffffff8111156124895761248861289d565b5b6040519080825280602002602001820160405280156124b75781602001602082028036833780820191505090505b5092505f5b81811015612690575f6001826124d2919061354f565b90505f846004015f8381526020019081526020015f209050805f0180546124f890613617565b80601f016020809104026020016040519081016040528092919081815260200182805461252490613617565b801561256f5780601f106125465761010080835404028352916020019161256f565b820191905f5260205f20905b81548152906001019060200180831161255257829003601f168201915b50505050508a848151811061258757612586613d89565b5b602002602001018190525080600101548984815181106125aa576125a9613d89565b5b60200260200101818152505080600201548884815181106125ce576125cd613d89565b5b602002602001018181525050806003015f9054906101000a900473ffffffffffffffffffffffffffffffffffffffff1687848151811061261157612610613d89565b5b602002602001019073ffffffffffffffffffffffffffffffffffffffff16908173ffffffffffffffffffffffffffffffffffffffff1681525050806008015f9054906101000a900460ff1686848151811061266f5761266e613d89565b5b602002602001019015159081151581525050505080806001019150506124bc565b50505091939590929450565b5f805f9050835f525f60205260405f20600281018054815f5260205f205f5b828110156126e457808201548881036126d85760019650506126e4565b506001810190506126bb565b50505050508091505092915050565b5f604051905090565b5f80fd5b5f80fd5b5f819050919050565b61271681612704565b8114612720575f80fd5b50565b5f813590506127318161270d565b92915050565b5f73ffffffffffffffffffffffffffffffffffffffff82169050919050565b5f61276082612737565b9050919050565b61277081612756565b811461277a575f80fd5b50565b5f8135905061278b81612767565b92915050565b5f805f606084860312156127a8576127a76126fc565b5b5f6127b586828701612723565b93505060206127c686828701612723565b92505060406127d78682870161277d565b9150509250925092565b6127ea81612704565b82525050565b5f6020820190506128035f8301846127e1565b92915050565b5f806040838503121561281f5761281e6126fc565b5b5f61282c85828601612723565b925050602061283d8582860161277d565b9150509250929050565b5f806040838503121561285d5761285c6126fc565b5b5f61286a85828601612723565b925050602061287b85828601612723565b9150509250929050565b5f80fd5b5f80fd5b5f601f19601f8301169050919050565b7f4e487b71000000000000000000000000000000000000000000000000000000005f52604160045260245ffd5b6128d38261288d565b810181811067ffffffffffffffff821117156128f2576128f161289d565b5b80604052505050565b5f6129046126f3565b905061291082826128ca565b919050565b5f67ffffffffffffffff82111561292f5761292e61289d565b5b6129388261288d565b9050602081019050919050565b828183375f83830152505050565b5f61296561296084612915565b6128fb565b90508281526020810184848401111561298157612980612889565b5b61298c848285612945565b509392505050565b5f82601f8301126129a8576129a7612885565b5b81356129b8848260208601612953565b91505092915050565b5f602082840312156129d6576129d56126fc565b5b5f82013567ffffffffffffffff8111156129f3576129f2612700565b5b6129ff84828501612994565b91505092915050565b5f805f60608486031215612a1f57612a1e6126fc565b5b5f612a2c86828701612723565b9350506020612a3d86828701612723565b9250506040612a4e86828701612723565b9150509250925092565b5f805f60608486031215612a6f57612a6e6126fc565b5b5f612a7c86828701612723565b935050602084013567ffffffffffffffff811115612a9d57612a9c612700565b5b612aa986828701612994565b9250506040612aba86828701612723565b9150509250925092565b5f81519050919050565b5f82825260208201905092915050565b5f819050602082019050919050565b612af681612756565b82525050565b5f612b078383612aed565b60208301905092915050565b5f602082019050919050565b5f612b2982612ac4565b612b338185612ace565b9350612b3e83612ade565b805f5b83811015612b6e578151612b558882612afc565b9750612b6083612b13565b925050600181019050612b41565b5085935050505092915050565b5f81519050919050565b5f82825260208201905092915050565b5f819050602082019050919050565b612bad81612704565b82525050565b5f612bbe8383612ba4565b60208301905092915050565b5f602082019050919050565b5f612be082612b7b565b612bea8185612b85565b9350612bf583612b95565b805f5b83811015612c25578151612c0c8882612bb3565b9750612c1783612bca565b925050600181019050612bf8565b5085935050505092915050565b5f6040820190508181035f830152612c4a8185612b1f565b90508181036020830152612c5e8184612bd6565b90509392505050565b5f60208284031215612c7c57612c7b6126fc565b5b5f612c8984828501612723565b91505092915050565b5f6020820190508181035f830152612caa8184612b1f565b905092915050565b5f67ffffffffffffffff821115612ccc57612ccb61289d565b5b602082029050602081019050919050565b5f80fd5b5f612cf3612cee84612cb2565b6128fb565b90508083825260208201905060208402830185811115612d1657612d15612cdd565b5b835b81811015612d3f5780612d2b888261277d565b845260208401935050602081019050612d18565b5050509392505050565b5f82601f830112612d5d57612d5c612885565b5b8135612d6d848260208601612ce1565b91505092915050565b5f8060408385031215612d8c57612d8b6126fc565b5b5f612d9985828601612723565b925050602083013567ffffffffffffffff811115612dba57612db9612700565b5b612dc685828601612d49565b9150509250929050565b5f81519050919050565b5f82825260208201905092915050565b8281835e5f83830152505050565b5f612e0282612dd0565b612e0c8185612dda565b9350612e1c818560208601612dea565b612e258161288d565b840191505092915050565b612e3981612756565b82525050565b5f6060820190508181035f830152612e578186612df8565b9050612e666020830185612e30565b8181036040830152612e788184612b1f565b9050949350505050565b5f81519050919050565b5f82825260208201905092915050565b5f819050602082019050919050565b5f82825260208201905092915050565b5f612ec582612dd0565b612ecf8185612eab565b9350612edf818560208601612dea565b612ee88161288d565b840191505092915050565b5f612efe8383612ebb565b905092915050565b5f602082019050919050565b5f612f1c82612e82565b612f268185612e8c565b935083602082028501612f3885612e9c565b805f5b85811015612f735784840389528151612f548582612ef3565b9450612f5f83612f06565b925060208a01995050600181019050612f3b565b50829750879550505050505092915050565b5f81519050919050565b5f82825260208201905092915050565b5f819050602082019050919050565b5f8115159050919050565b612fc281612fae565b82525050565b5f612fd38383612fb9565b60208301905092915050565b5f602082019050919050565b5f612ff582612f85565b612fff8185612f8f565b935061300a83612f9f565b805f5b8381101561303a5781516130218882612fc8565b975061302c83612fdf565b92505060018101905061300d565b5085935050505092915050565b5f60a0820190508181035f83015261305f8188612f12565b905081810360208301526130738187612bd6565b905081810360408301526130878186612bd6565b9050818103606083015261309b8185612bd6565b905081810360808301526130af8184612feb565b90509695505050505050565b5f805f80608085870312156130d3576130d26126fc565b5b5f6130e087828801612723565b945050602085013567ffffffffffffffff81111561310157613100612700565b5b61310d87828801612994565b935050604061311e87828801612723565b925050606061312f87828801612723565b91505092959194509250565b5f60a0820190508181035f8301526131538188612f12565b905081810360208301526131678187612bd6565b9050818103604083015261317b8186612bd6565b9050818103606083015261318f8185612b1f565b905081810360808301526131a38184612feb565b90509695505050505050565b7f4f6e6c792063726561746f722063616e207472616e73666572000000000000005f82015250565b5f6131e3601983612dda565b91506131ee826131af565b602082019050919050565b5f6020820190508181035f830152613210816131d7565b9050919050565b7f496e76616c6964206e65772063726561746f72000000000000000000000000005f82015250565b5f61324b601383612dda565b915061325682613217565b602082019050919050565b5f6020820190508181035f8301526132788161323f565b9050919050565b7f42696c6c20646f6573206e6f74206578697374000000000000000000000000005f82015250565b5f6132b3601383612dda565b91506132be8261327f565b602082019050919050565b5f6020820190508181035f8301526132e0816132a7565b9050919050565b7f4e6f742061206d656d62657200000000000000000000000000000000000000005f82015250565b5f61331b600c83612dda565b9150613326826132e7565b602082019050919050565b5f6020820190508181035f8301526133488161330f565b9050919050565b7f4e487b71000000000000000000000000000000000000000000000000000000005f52601160045260245ffd5b5f61338682612704565b915061339183612704565b92508282039050818111156133a9576133a861334f565b5b92915050565b7f676f616c20646f6573206e6f74206578697374000000000000000000000000005f82015250565b5f6133e3601383612dda565b91506133ee826133af565b602082019050919050565b5f6020820190508181035f830152613410816133d7565b9050919050565b7f676f616c206e6f7420696e2073657373696f6e000000000000000000000000005f82015250565b5f61344b601383612dda565b915061345682613417565b602082019050919050565b5f6020820190508181035f8301526134788161343f565b9050919050565b7f676f616c20616c72656164792077697468647261776e000000000000000000005f82015250565b5f6134b3601683612dda565b91506134be8261347f565b602082019050919050565b5f6020820190508181035f8301526134e0816134a7565b9050919050565b7f656e7465722076616c696420616d6f756e7400000000000000000000000000005f82015250565b5f61351b601283612dda565b9150613526826134e7565b602082019050919050565b5f6020820190508181035f8301526135488161350f565b9050919050565b5f61355982612704565b915061356483612704565b925082820190508082111561357c5761357b61334f565b5b92915050565b7f4d7573742073656e6420455448000000000000000000000000000000000000005f82015250565b5f6135b6600d83612dda565b91506135c182613582565b602082019050919050565b5f6020820190508181035f8301526135e3816135aa565b9050919050565b7f4e487b71000000000000000000000000000000000000000000000000000000005f52602260045260245ffd5b5f600282049050600182168061362e57607f821691505b602082108103613641576136406135ea565b5b50919050565b5f819050815f5260205f209050919050565b5f6020601f8301049050919050565b5f82821b905092915050565b5f600883026136a37fffffffffffffffffffffffffffffffffffffffffffffffffffffffffffffffff82613668565b6136ad8683613668565b95508019841693508086168417925050509392505050565b5f819050919050565b5f6136e86136e36136de84612704565b6136c5565b612704565b9050919050565b5f819050919050565b613701836136ce565b61371561370d826136ef565b848454613674565b825550505050565b5f90565b61372961371d565b6137348184846136f8565b505050565b5b818110156137575761374c5f82613721565b60018101905061373a565b5050565b601f82111561379c5761376d81613647565b61377684613659565b81016020851015613785578190505b61379961379185613659565b830182613739565b50505b505050565b5f82821c905092915050565b5f6137bc5f19846008026137a1565b1980831691505092915050565b5f6137d483836137ad565b9150826002028217905092915050565b6137ed82612dd0565b67ffffffffffffffff8111156138065761380561289d565b5b6138108254613617565b61381b82828561375b565b5f60209050601f83116001811461384c575f841561383a578287015190505b61384485826137c9565b8655506138ab565b601f19841661385a86613647565b5f5b828110156138815784890151825560018201915060208501945060208101905061385c565b8683101561389e578489015161389a601f8916826137ad565b8355505b6001600288020188555050505b505050505050565b7f4f6e6c792063726561746f722063616e20657874656e6420646561646c696e655f82015250565b5f6138e7602083612dda565b91506138f2826138b3565b602082019050919050565b5f6020820190508181035f830152613914816138db565b9050919050565b7f476f616c20646f6573206e6f74206578697374000000000000000000000000005f82015250565b5f61394f601383612dda565b915061395a8261391b565b602082019050919050565b5f6020820190508181035f83015261397c81613943565b9050919050565b7f476f616c20616c72656164792077697468647261776e000000000000000000005f82015250565b5f6139b7601683612dda565b91506139c282613983565b602082019050919050565b5f6020820190508181035f8301526139e4816139ab565b9050919050565b7f4e657720646561646c696e65206d757374206265206c617465720000000000005f82015250565b5f613a1f601a83612dda565b9150613a2a826139eb565b602082019050919050565b5f6020820190508181035f830152613a4c81613a13565b9050919050565b7f416c7265616479207265696d62757273656400000000000000000000000000005f82015250565b5f613a87601283612dda565b9150613a9282613a53565b602082019050919050565b5f6020820190508181035f830152613ab481613a7b565b9050919050565b7f42696c6c206e6f742066756c6c792070616964000000000000000000000000005f82015250565b5f613aef601383612dda565b9150613afa82613abb565b602082019050919050565b5f6020820190508181035f830152613b1c81613ae3565b9050919050565b7f4f6e6c792062696c6c2063726561746f722063616e20776974686472617700005f82015250565b5f613b57601e83612dda565b9150613b6282613b23565b602082019050919050565b5f6020820190508181035f830152613b8481613b4b565b9050919050565b5f81905092915050565b50565b5f613ba35f83613b8b565b9150613bae82613b95565b5f82019050919050565b5f613bc282613b98565b9150819050919050565b7f5769746864726177206661696c656400000000000000000000000000000000005f82015250565b5f613c00600f83612dda565b9150613c0b82613bcc565b602082019050919050565b5f6020820190508181035f830152613c2d81613bf4565b9050919050565b7f4e6f206d656d6265727320696e2067726f7570000000000000000000000000005f82015250565b5f613c68601383612dda565b9150613c7382613c34565b602082019050919050565b5f6020820190508181035f830152613c9581613c5c565b9050919050565b5f613ca682612704565b91507fffffffffffffffffffffffffffffffffffffffffffffffffffffffffffffffff8203613cd857613cd761334f565b5b600182019050919050565b7f4e487b71000000000000000000000000000000000000000000000000000000005f52601260045260245ffd5b5f613d1a82612704565b9150613d2583612704565b925082613d3557613d34613ce3565b5b828204905092915050565b5f613d4a82612704565b9150613d5583612704565b925082613d6557613d64613ce3565b5b828206905092915050565b5f602082019050613d835f830184612e30565b92915050565b7f4e487b71000000000000000000000000000000000000000000000000000000005f52603260045260245ffd5b7f4f6e6c792063726561746f722063616e207769746864726177000000000000005f82015250565b5f613dea601983612dda565b9150613df582613db6565b602082019050919050565b5f6020820190508181035f830152613e1781613dde565b9050919050565b7f546172676574206e6f74206d65740000000000000000000000000000000000005f82015250565b5f613e52600e83612dda565b9150613e5d82613e1e565b602082019050919050565b5f6020820190508181035f830152613e7f81613e46565b9050919050565b7f416c72656164792077697468647261776e0000000000000000000000000000005f82015250565b5f613eba601183612dda565b9150613ec582613e86565b602082019050919050565b5f6020820190508181035f830152613ee781613eae565b9050919050565b7f5472616e73666572206661696c656400000000000000000000000000000000005f82015250565b5f613f22600f83612dda565b9150613f2d82613eee565b602082019050919050565b5f6020820190508181035f830152613f4f81613f16565b9050919050565b7f6f6e6c792063726561746f722063616e20616464206d656d62657200000000005f82015250565b5f613f8a601b83612dda565b9150613f9582613f56565b602082019050919050565b5f6020820190508181035f830152613fb781613f7e565b9050919050565b5f81905092915050565b613fd181612756565b82525050565b5f613fe28383613fc8565b60208301905092915050565b5f613ff882612ac4565b6140028185613fbe565b935061400d83612ade565b805f5b8381101561403d5781516140248882613fd7565b975061402f83612b13565b925050600181019050614010565b5085935050505092915050565b5f6140558284613fee565b915081905092915050565b7f6f6e6c792063726561746f722063616e2063726561746520676f616c000000005f82015250565b5f614094601c83612dda565b915061409f82614060565b602082019050919050565b5f6020820190508181035f8301526140c181614088565b905091905056fea2646970667358221220808e77d72bfaa6f893a38b8ae5c56c54b6f56be68fbed0dd009e95c60b6c6a3964736f6c63430008190033","linkReferences":{}},"methodIdentifiers":{"AddMember(uint256,address[])":"c74ba1d7","Contribute(uint256,uint256)":"4a8efe11","CreateBill(uint256,string,uint256)":"8f32b052","CreateGoal(uint256,string,uint256,uint256)":"dbc452f0","CreateGroup(string)":"7109ec2e","LeaveGroup(uint256)":"d408839b","extendDeadline(uint256,uint256,uint256)":"7d5d8edc","getAllBills(uint256)":"e90a1596","getAllGoals(uint256)":"d8673655","getBillPayers(uint256,uint256)":"9a806bfd","getContribution(uint256,uint256,address)":"9b032342","getGoalContributors(uint256,uint256)":"c5b00a00","getGroup(uint256)":"ceb60654","getMembers(uint256)":"c477ecab","getOutstandingAmount(uint256,uint256,address)":"323ad28b","getPaidShare(uint256,uint256,address)":"13d43a88","groupCount()":"8f23b326","payBillShare(uint256,uint256)":"5b5b21e3","transferCreator(uint256,address)":"1cc9bb21","withdrawBillFunds(uint256,uint256)":"8a03f088","withdrawGoalFunds(uint256,uint256)":"9b8a1c7e"},"id":19}